:100000000C9462000C948A000C948A000C948A0070
:100010000C948A000C948A000C948A000C948A0038
:100020000C948A000C948A000C948A000C94470B60
:100030000C948A000C948A000C948A000C948A0018
:100040000C94DE090C948A000C94AC090C9486097B
:100050000C948A000C948A000C948A000C948A00F8
:100060000C94280A0C948A00000000002500280047
:100070002B000000000023002600290000000008DB
:10008000000201000003040700000000000000005F
:1000900000000000240027002A00010204081020AC
:1000A000408001020408102001020408102004040A
:1000B0000404040404040202020202020303030310
:1000C0000303030C11241FBECFEFD8E0DEBFCDBF6A
:1000D00011E0A0E0B1E0E8E8F1E202C005900D9285
:1000E000A836B107D9F723E0A8E6B1E001C01D9218
:1000F000AB33B207E1F710E0C2E6D0E004C02197CD
:10010000FE010E94BC10C136D107C9F70E94DC0C69
:100110000C94C2100C9400008CBD9DBD08958F926C
:100120009F92AF92BF92FF920F931F93CF93DF9353
:10013000F09003032BE02F1508F44CC02091050329
:1001400008E512E0021B110927FD1395000F111F8E
:10015000000F111F20910403C8E8D0E0C21BD10991
:1001600027FDD395CC0FDD1FCC0FDD1F4E010D2ECB
:10017000000CAA08BB089801012E000C440B550B7B
:10018000281939094A095B09DC010E94771024EB20
:1001900030E040E050E00E944D10820E931EA41EFD
:1001A000B51E8C169D062CF0E801801691060CF405
:1001B000E4012297CC0FDD1F2FB7F8948F2D90E02C
:1001C000FC01EE0FFF1FE80FF91FE652FD4FD2832F
:1001D000C1832FBFDF91CF911F910F91FF90BF90EF
:1001E000AF909F908F900895FC01538D448D252FE3
:1001F00030E0842F90E0821B930B541710F0CF96C1
:10020000089501970895FC01918D828D981761F0F2
:10021000A28DAE0FBF2FB11D5D968C91928D9F5F09
:100220009F73928F90E008958FEF9FEF0895FC01E8
:10023000918D828D981731F0828DE80FF11D858D9B
:1002400090E008958FEF9FEF0895FC01918D228D2E
:10025000892F90E0805C9F4F821B91098F739927B3
:100260000895FC01A48DA80FB92FB11DA35ABF4F4B
:100270002C91848D90E001968F739927848FA689A5
:10028000B7892C93A089B1898C91837080648C93F9
:10029000938D848D981306C00288F389E02D8081A8
:1002A0008F7D80830895EF92FF920F931F93CF93DA
:1002B000DF93EC0181E0888F9B8D8C8D98131AC0A1
:1002C000E889F989808185FF15C09FB7F894EE8988
:1002D000FF896083E889F9898081837080648083E5
:1002E0009FBF81E090E0DF91CF911F910F91FF9030
:1002F000EF900895F62E0B8D10E00F5F1F4F0F73D8
:100300001127E02E8C8D8E110CC00FB607FCFACF92
:10031000E889F989808185FFF5CFCE010E943101FE
:10032000F1CFEB8DEC0FFD2FF11DE35AFF4FF08263
:100330009FB7F8940B8FEA89FB8980818062CFCFC9
:10034000CF93DF93EC01888D8823B9F0AA89BB890C
:10035000E889F9898C9185FD03C0808186FD0DC0F7
:100360000FB607FCF7CF8C9185FFF2CF808185FF18
:10037000EDCFCE010E943101E9CFDF91CF910895F9
:1003800081E392E00E94250121E0892B09F420E01D
:10039000822F089580E090E0892B29F00E94C0010F
:1003A00081110C940000089508950895AF92BF92B2
:1003B000CF92DF92EF92FF920F931F93CF93DF9331
:1003C0006C017B018B01040F151FEB015E01AE1860
:1003D000BF08C017D10759F06991D601ED91FC9182
:1003E0000190F081E02DC6010995892B79F7C501AF
:1003F000DF91CF911F910F91FF90EF90DF90CF9001
:10040000BF90AF900895833081F028F4813099F047
:100410008230A9F008958730A9F08830C9F084307F
:10042000B1F4809180008F7D03C0809180008F7730
:1004300080938000089584B58F7784BD089584B536
:100440008F7DFBCF8091B0008F778093B0000895AF
:100450008091B0008F7DF9CFCF93DF93282F30E0CC
:10046000F901E458FF4F8491F901E656FF4FD4910A
:10047000F901E255FF4FC491CC23A1F081110E94F4
:100480000302EC2FF0E0EE0FFF1FEE58FF4FA59197
:10049000B491EC91ED2381E090E009F480E0DF91EC
:1004A000CF91089580E090E0FACF1F93CF93DF9330
:1004B000282F30E0F901E458FF4F8491F901E65606
:1004C000FF4FD491F901E255FF4FC491CC23A9F01D
:1004D000162F81110E940302EC2FF0E0EE0FFF1F98
:1004E000E859FF4FA591B4918FB7F894EC91111191
:1004F00008C0D095DE23DC938FBFDF91CF911F9191
:100500000895DE2BF8CFCF93DF9390E0FC01E65601
:10051000FF4F249182559F4FFC0184918823C9F09D
:1005200090E0880F991FFC01E057FF4FA591B4910F
:10053000FC01E859FF4FC591D49161110DC09FB7DF
:10054000F8948C91209582238C938881282328838A
:100550009FBFDF91CF910895623051F49FB7F89417
:100560003C91822F809583238C93E8812E2BEFCFB3
:100570008FB7F894EC912E2B2C938FBFEACF3FB717
:10058000F8948091200290912102A0912202B091D2
:10059000230226B5A89B05C02F3F19F00196A11D87
:1005A000B11D3FBFBA2FA92F982F8827BC01CD01BD
:1005B000620F711D811D911D42E0660F771F881F1C
:1005C000991F4A95D1F708958F929F92AF92BF924B
:1005D000CF92DF92EF92FF924B015C010E94BF022B
:1005E0006B017C010E94BF026C197D098E099F0975
:1005F000683E734081059105A8F321E0821A9108B5
:10060000A108B10888EEC80E83E0D81EE11CF11CD9
:1006100081149104A104B10429F7FF90EF90DF90B9
:10062000CF90BF90AF909F908F9008952FB7F89480
:1006300060911C0270911D0280911E0290911F0218
:100640002FBF08952091D101260F3327331F213268
:100650003105ECF42091F501FC0190E080E02430BC
:1006600069F082E00895A091D1012191AC014F542D
:100670005E4FA40FB52FB11D2C930196861798F3EA
:100680008091D101680F6093D10180E0089581E0ED
:1006900008951092F50181E08093F7011092F60120
:1006A00061E082E10E94550261E083E10E9455020F
:1006B000E9EBF0E080818E7F808380818D7F808375
:1006C00088E48093B80085E48093BC000895CF93BC
:1006D000DF9391E09093B0018823B9F0C091B80006
:1006E000D091BA008091BC008A7B8093BC0060E00E
:1006F00082E10E94550260E083E10E9455020E945F
:100700004903D093BA00C093B800DF91CF91089508
:100710000895E0912B0280912A02E81730F4F0E06E
:10072000E557FE4F808190E008958FEF9FEF089589
:1007300090912B0280912A022FEF3FEF981748F4F7
:10074000E92FF0E0E557FE4F208130E09F5F909366
:100750002B02C901089580912A0290912B02891BD6
:10076000990B0895CF92DF92EF92FF920F931F9310
:10077000CF93DF937C01CB018A0120918A01222350
:1007800089F0EB016B01C40ED51ECC15DD0569F0B7
:100790006991D701ED91FC910190F081E02DC701A5
:1007A0000995F3CF642F0E942203C801DF91CF91F6
:1007B0001F910F91FF90EF90DF90CF900895CF930E
:1007C000DF931F92CDB7DEB7698320918A01222380
:1007D000F9F020912802203258F021E030E0FC01AD
:1007E0003383228390E080E00F90DF91CF910895D2
:1007F00080912902E82FF0E0E659FE4F998190831D
:100800008F5F809329028093280281E090E0ECCFF3
:1008100061E0CE0101960E942203F7CFCF92DF92D2
:10082000EF92FF920F931F93CF93DF93FC01C4814C
:1008300021E020938A01C09369011092290210924D
:1008400028028385682B8EEC92E00E94DF03D09112
:100850002802D13208F092C00E94BF026B017C01D5
:100860008091F501811165C082E08093F50181E0FE
:100870008093F7018FEF8093F40110921902D093C7
:100880001802AAE6B1E0E8EFF1E080E0D81385C0F5
:1008900010921A0280911A02CC0FC82BC0931A0230
:1008A0008091F601813009F07CC01092F6010E941F
:1008B000BF026B017C0180911A028093BB00809182
:1008C000AC019091AD01A091AE01B091AF01892B27
:1008D0008A2B8B2B99F00E94BF020091AC011091E2
:1008E000AD012091AE013091AF016C197D098E09E7
:1008F0009F090617170728073907E0F18091BC0008
:1009000083FDD9CF85EC8093BC000E94BF026B01B0
:100910007C018091F501823009F445C08091F40199
:100920008F3F61F18091F401803241F18091F401B7
:1009300025C08091AC019091AD01A091AE01B09124
:10094000AF01892B8A2B8B2B09F48ACF0E94BF021F
:100950000091AC011091AD012091AE013091AF0139
:100960006C197D098E099F09061717072807390793
:1009700008F076CF8091AB010E94670310922902A4
:100980001092280210928A01DF91CF911F910F914E
:10099000FF90EF90DF90CF9008959D9191938F5F9E
:1009A00075CF85EEB0CF8091AC019091AD01A09153
:1009B000AE01B091AF01892B8A2B8B2B09F4A9CF03
:1009C0000E94BF020091AC011091AD012091AE01D7
:1009D0003091AF016C197D098E099F090617170721
:1009E0002807390708F095CFC5CF089590E080E03B
:1009F0000895BC016E5F7F4FDC01ED91FC91019089
:100A0000F081E02D40E0099591E0811190E0892F7F
:100A1000089508958EBD00000DB407FEFDCF8EB57C
:100A20000895DF92EF92FF920F931F93CF93DF937E
:100A30007C01062FD42E152F80E590E00E948C00BB
:100A400060E0F70186850E94550282E10E940A0556
:100A5000CD2DD12F0C0F1D2F111DC017D10721F047
:100A600089910E940A05F9CF61E0F7018685DF913F
:100A7000CF911F910F91FF90EF90DF900C94550252
:100A80001F93CF93DF93EC01162F80E590E00E9437
:100A90008C0060E08E850E945502812F80680E9444
:100AA0000A0580E00E940A05182F61E08E850E94E9
:100AB0005502812FDF91CF911F9108950F931F93BE
:100AC000CF93DF93EC01062F142F80E590E00E9476
:100AD0008C0060E08E850E945502802F0E940A05DE
:100AE000812F0E940A0561E08E85DF91CF911F91D1
:100AF0000F910C945502CF92DF92EF92FF920F93D9
:100B00001F93CF93DF93EC016B01F42E890140E03A
:100B100062E00E945E0544E06AE0CE010E945E054C
:100B200040E864E1CE010E945E05A6016F2DCE0172
:100B30000E94110543E062E0CE010E945E050E9422
:100B400016036B017C0129E5C20ED11CE11CF11CCE
:100B50006AE0CE010E94400582FF1BC040E062E0D7
:100B6000CE010E945E0564E4CE010E944005F801BA
:100B7000808362E4CE010E944005F801818380E019
:100B8000DF91CF911F910F91FF90EF90DF90CF9069
:100B900008950E9416036C157D058E059F05C0F211
:100BA00083E0EECF2F923F924F925F926F927F92AF
:100BB0008F929F92AF92CF92DF92EF92FF920F931C
:100BC0001F93CF93DF9300D0CDB7DEB74C012B013D
:100BD000D42E390180E0E114F10411F0F701808195
:100BE0003C2C329490EF3922380E40E062E0C40190
:100BF0000E945E054FE768E0C4010E945E0540E880
:100C000064E1C4010E945E05A2016D2DC4010E9431
:100C10001105432D6AE1C4010E945E054CE062E0CB
:100C2000C4010E945E056AE1C4010E944005482F8C
:100C300040686AE1C4010E945E050E9416031B0120
:100C40002C01F4E22F0E311C411C511C68E0C40140
:100C50000E944005982F907309F0B7C080FF15C01F
:100C600083E00F900F90DF91CF911F910F91FF9034
:100C7000EF90DF90CF90AF909F908F907F906F908C
:100C80005F904F903F902F9008950E941603621539
:100C9000730584059505D0F2E3CF6114710409F45E
:100CA00069C00115110509F465C064E1C4010E9421
:100CB0004005382EF8018081831508F480C0308209
:100CC0003320E1F180E590E00E948C0060E0F401C7
:100CD00086850E9455023A9482E90E940A05CC203A
:100CE000B1F08FEF90E09C0102C0220F331FCA9435
:100CF000E2F7690182E90E940A059C2D9095F301B3
:100D0000208192238C21982B9083CC24C39423019F
:100D10004C0C511CC31440F482E90E940A05F201F4
:100D200081932F01C394F6CF80E00E940A05F2015F
:100D3000808361E0F40186850E94550268E1C40168
:100D40000E9440058770E114F10411F0F7018083DF
:100D500023FC37C061147104B1F10115110599F13B
:100D6000AA2089F1F8014081413031F4843029F51D
:100D70008FEF77CF80E0ECCF4230F8F081111DC0CB
:100D800042509E012F5F3F4FB301C4010E947B057B
:100D9000811167CFF8019081690E711CF3013297C0
:100DA00020819981291309C0F1E06F1A7108F301BC
:100DB00020819A81291709F454CF87E052CF84E02B
:100DC00050CF82E04ECF80E04CCF6CE0C4010E9457
:100DD0004005282E837109F460CF81E042CF8F92C5
:100DE0009F92AF92CF92EF92FF920F931F93CF9368
:100DF000DF9300D000D01F92CDB7DEB74C0182E068
:100E00008D8340E064E2C4010E945E0540E066E23A
:100E1000C4010E945E0546E268E4C4010E945E05CA
:100E200086E28B838D818230D8F16CE1C4010E940F
:100E30004005482F4F776CE1C4010E945E0587E0B2
:100E40008C83A12CC12CCE0104967C018E010B5FFA
:100E50001F4F9E012F5F3F4F41E0BE016D5F7F4FEF
:100E6000C4010E94D205982F811117C08D81823054
:100E7000B9F48C81811114C081E00F900F900F9014
:100E80000F900F90DF91CF911F910F91FF90EF90F6
:100E9000CF90AF909F908F90089581E0923069F34A
:100EA00080E0EBCF2F923F924F925F926F927F92B2
:100EB0008F929F92AF92BF92CF92DF92EF92FF926A
:100EC0000F931F93CF93DF93CDB7DEB72D970FB658
:100ED000F894DEBF0FBECDBF16E0413508F04AC121
:100EE000342E3B014C016CE10E944005482F4F77A6
:100EF0006CE1C4010E945E0583E98983332029F0F7
:100F000081E0F3019081953008F480E0222423945D
:100F1000B12C9B2D990F990F990FD32CD91AD7FC6F
:100F2000D12C32E0882319F098E89B8333E021E04C
:100F30009D2D977009F420E09D2D9595959595959B
:100F4000290FC9F094E0811193E0291708F4922F3A
:100F5000EB2DF0E03196E60DF71D232F4191A1E036
:100F6000B0E0AC0FBD1FA20FB11D4C932F5F422FFD
:100F7000431B491798F3882311F0F8E0DF0E8FE147
:100F80008D150CF082C090E79A838B819C81892714
:100F90009D8189279E8189278F839E01285F3F4FEE
:100FA00047E0BE016F5F7F4FC4010E947B05182F91
:100FB0008111E0C01A86E3E0EB87DC86CE0107965C
:100FC0002C0199E09D87CA844C2D4295407F4C0DA1
:100FD0006AE1C4010E945E05A12CCE010A967C0143
:100FE0008E01055F1F4F92014D85BE016F5F7F4FE0
:100FF000C4010E94D205182F823009F065C06CE14F
:10100000C4010E94400585FDB5C08F7109F480E2DE
:10101000282F30E04D2DDD0C550B421753070CF0F7
:101020009DC0D82EE82FE595E595E595EF5F982FC3
:10103000977081E009F480E0E80F81E090E08C0F88
:101040009D1F8E0F911DFC01215031092770332700
:1010500081E090E002C0880F991F2A95E2F79C0179
:101060008081822B80838BCF85E98983332031F087
:1010700081E0F3019081983008F04BCF80E049CFB8
:1010800087E9898326E0B22EF9CF9D2D97709A8744
:101090008D2D8595859585958E5F282F2295207FAE
:1010A000290F2A8321E0911101C020E0280F2D870C
:1010B00044244394512C4C0E5D1E480E511CE9E013
:1010C000E81BEB87DC867FCF811154C080E2D82EED
:1010D0009C8590320CF457CF8B81883809F040C042
:1010E00083E093E0EB2DF0E03196E60DF71D980FCD
:1010F000A1E0B0E0AC0FBD1FA80FB11D2C91219352
:101100008F5F8913F5CFBB84E3E0BE124DC08A85A3
:1011100081114AC09E012D5F3F4F41E0B201C401E1
:101120000E947B05182F811125C09B81F2018181CE
:1011300098133CC09C818281981338C0808182FFC3
:1011400012C02394F2E02F1609F48ECF83E0281604
:1011500009F496CF91E0291609F4CECE15E00AC025
:1011600082E094E0BFCFF3018387822D880F820D48
:101170008F5F8083812F2D960FB6F894DEBF0FBE50
:10118000CDBFDF91CF911F910F91FF90EF90DF9036
:10119000CF90BF90AF909F908F907F906F905F9017
:1011A0004F903F902F90089511E0E4CF17E0E2CFE9
:1011B000FC0101900020E9F73197AF01481B590B62
:1011C000BC018FE093E00C94D60185ED8093BC00C8
:1011D0008091AC019091AD01A091AE01B091AF01B1
:1011E0000796A11DB11D23E0B695A7959795879504
:1011F0002A95D1F72091BC0024FD03C01092F5017F
:1012000008954091AC015091AD016091AE01709193
:10121000AF01452B462B472B69F30097A105B1057C
:1012200041F025E32A95F1F700000197A109B109E2
:10123000E1CF8091AB010C9467030F931F93CF9381
:101240008C01C62F0E940E046C2F6460C8010E949E
:101250000E046C2F6B7FC8010E940E0483EC90E09B
:101260000197F1F7CF911F910F9108950F931F935D
:10127000CF93DF938C01D62FC42F607F642B0E9405
:101280001D0980E1D89FB00111246C2BC801DF91AA
:10129000CF911F910F910C941D09CF93DF93CDB780
:1012A000DEB728970FB6F894DEBF0FBECDBF98E02B
:1012B000E0E0F1E0DE01119601900D929A95E1F7E0
:1012C00090911703961708F46FEF262F30E0220F46
:1012D000331F41E050E04C0F5D1F240F351FF90113
:1012E0006081680F606840E08FE093E028960FB659
:1012F000F894DEBF0FBECDBFDF91CF910C943609BD
:1013000041E00E94360981E090E008951F920F921B
:101310000FB60F9211242F933F934F935F936F93C8
:101320007F938F939F93AF93BF93EF93FF9381E34B
:1013300092E00E943101FF91EF91BF91AF919F9197
:101340008F917F916F915F914F913F912F910F906E
:101350000FBE0F901F9018951F920F920FB60F920D
:1013600011242F938F939F93EF93FF93E09141026A
:10137000F09142028081E0914702F091480282FDA3
:101380001BC0908180914A028F5F8F7320914B0226
:10139000821741F0E0914A02F0E0EF5CFD4F958F3B
:1013A00080934A02FF91EF919F918F912F910F901F
:1013B0000FBE0F901F9018958081F4CF1F920F924F
:1013C0000FB60F9211242F933F938F939F93AF9358
:1013D000BF9380911C0290911D02A0911E02B091BA
:1013E0001F0230911B0223E0230F2D3758F5019681
:1013F000A11DB11D20931B0280931C0290931D021E
:10140000A0931E02B0931F028091200290912102AE
:10141000A0912202B09123020196A11DB11D8093DB
:10142000200290932102A0932202B0932302BF9145
:10143000AF919F918F913F912F910F900FBE0F9081
:101440001F90189526E8230F0296A11DB11DD2CF3B
:101450001F920F920FB60F9211242F933F934F9329
:101460005F936F937F938F939F93AF93BF93EF930C
:10147000FF938091B900887F803609F44AC0F0F567
:10148000883209F4A7C018F5803109F49BC0B8F47C
:10149000882309F4F9C0883009F494C0FF91EF91D2
:1014A000BF91AF919F918F917F916F915F914F917C
:1014B0003F912F910F900FBE0F901F90189588317C
:1014C00009F488C0803251F78093F40114C080344D
:1014D00009F49DC040F48033B9F38833F9F6809362
:1014E000F40185ECB0C0803509F485C0883509F475
:1014F00096C0883499F60E94E508D0CF883909F45F
:101500008CC038F5883729F050F4883611F08037D0
:1015100029F683E08093F5011092F30157C08838D3
:1015200009F47BC0803919F0803809F0B7CF809179
:10153000F301803208F071C0E091F30181E08E0F79
:101540008093F3018091BB00F0E0ED52FE4F808369
:101550003DC0803B39F0E0F4803A09F479C0883A24
:1015600009F09CCF84E08093F5011092D201109293
:10157000D101E0912602F091270209958091D101D5
:1015800081110FC081E08093D1011092B10109C097
:10159000803C09F4A6CF883C09F4A3CF883B09F02E
:1015A0007DCFE091D20181E08E0F8093D201F0E0F7
:1015B000EF54FE4F80818093BB009091D2018091C7
:1015C000D10129C080911A028093BB0085EC8093E1
:1015D000BC0064CF9091190280911802981758F5B9
:1015E000E091190281E08E0F80931902F0E0E8503B
:1015F000FE4F8081E9CFE091190281E08E0F809348
:1016000019028091BB00F0E0E850FE4F808390917A
:101610001902809118029817C8F285E8D8CFE09196
:10162000190281E08E0F809319028091BB00F0E0D7
:10163000E850FE4F80838091F70181115CCF81E0FB
:101640008093F60184EA8093BC001092F50126CFC6
:1016500085EC8093BC001092F5018091F3018032FB
:1016600030F4E091F301F0E0ED52FE4F1082609112
:10167000F30170E0E0912402F091250283ED91E006
:1016800009951092F3010ACF1092F40134CF1F9202
:101690000F920FB60F9211242F933F934F935F93A6
:1016A0006F937F938F939F93AF93BF93CF93DF936A
:1016B000EF93FF9380916801C091FE02D0E087FF15
:1016C00024C01092850010928400809168018F5F81
:1016D0008093680180916801082E000C990B8C178B
:1016E0009D0724F4809168018C30C4F180918400BE
:1016F00090918500049680349C4908F47AC08091CA
:10170000840090918500049676C080916801082E2F
:10171000000C990B8C179D07C4F6E09168018E2F81
:10172000EE0F990BFC01EE0FFF1FE80FF91FE652B9
:10173000FD4F808186FFC9CFE09168018E2FEE0FAB
:10174000990BFC01EE0FFF1FE80FF91FE652FD4F4A
:10175000808160E08F730E945502B7CF2091840092
:1017600030918500E09168018E2FEE0F990BFC01FE
:10177000EE0FFF1FE80FF91FE652FD4F81819281A6
:10178000820F931F9093890080938800E0916801F5
:101790008E2FEE0F990BFC01EE0FFF1FE80FF91FC4
:1017A000E652FD4F808186FF11C0E09168018E2FC7
:1017B000EE0F990BFC01EE0FFF1FE80FF91FE65229
:1017C000FD4F808161E08F730E945502FF91EF9180
:1017D000DF91CF91BF91AF919F918F917F916F9149
:1017E0005F914F913F912F910F900FBE0F901F90DF
:1017F000189580E49CE990938900809388008FEF8E
:1018000080936801E3CF109234021092330288EE85
:1018100093E0A0E0B0E08093350290933602A0936D
:101820003702B09338022CE031E03093320220933B
:10183000310225EC30E030933E0220933D0224EC4F
:1018400030E03093400220933F0220EC30E03093B0
:1018500042022093410221EC30E030934402209375
:10186000430222EC30E0309346022093450226ECFE
:1018700030E0309348022093470210924A021092BF
:101880004B0210924C0210924D021092D102109213
:10189000D0028093D2029093D302A093D402B0934B
:1018A000D5028EE191E09093CF028093CE02809199
:1018B000FE028C3008F07CC091E0980F9093FE02FD
:1018C0008093030390E0FC01EE0FFF1FE80FF91F68
:1018D000E652FD4F88EB9BE09283818385E090E0A8
:1018E000909307038093060384E090E090930A03AB
:1018F0008093090383E090E090930C0380930B03A3
:1019000087E090E090930E0380930D0310921203F2
:10191000109211038AE391E09093100380930F03D8
:1019200087E28093130380E18093180382E0809321
:10193000190310921A0380E391E090932C03809393
:101940002B038AE08093390389E080933A03109255
:10195000080361E084E00E94830261E083E00E946A
:10196000830261E087E00E94830210921B031092C1
:101970001C0310921D0310921E0310921F0310925D
:10198000200310922103109222030E9416036093F9
:1019900023037093240380932503909326031092CE
:1019A0002703109228031092290310922A03089506
:1019B0008FEF8093030392CF789484B5826084BDC7
:1019C00084B5816084BD85B5826085BD85B5816043
:1019D00085BD80916E00816080936E0010928100C1
:1019E000809181008260809381008091810081607C
:1019F000809381008091800081608093800080913D
:101A0000B10084608093B1008091B00081608093C8
:101A1000B00080917A00846080937A0080917A008F
:101A2000826080937A0080917A00816080937A004E
:101A300080917A00806880937A001092C10061E002
:101A4000809139030E94830261E0809139030E94F2
:101A5000550280913A038F3F09F432C260E00E9440
:101A6000830280913A030E942C02892B09F028C23C
:101A700061E080913A030E94830260E080913A0322
:101A80000E94550283E090E00197F1F761E08091B8
:101A90003A030E94550262E370E080E090E00E9409
:101AA000E40240E064E28BE293E00E945E0540E0E5
:101AB00066E28BE293E00E945E0546E268E48BE218
:101AC00093E00E945E0540E864E58BE293E00E94AB
:101AD0005E0549EA66E58BE293E00E945E0543E01D
:101AE00068E58BE293E00E945E0548EE6AE58BE2D2
:101AF00093E00E945E0540E46AE28BE293E00E947C
:101B00005E054DE362E28BE293E00E945E0568E2CF
:101B10008BE293E00E944005982F9370933039F048
:101B2000482F436068E28BE293E00E945E05CFB7E6
:101B3000F89480912C02811127C0E8EBF0E08491A9
:101B4000E4EAF0E09491E82FF0E0EE0FFF1FE05799
:101B5000FF4FA591B491EC91E92321F461E08AE073
:101B60000E94550261E08AE00E9483028CB5806188
:101B70008CBD8CB580648CBD61E08DE00E948302D9
:101B800061E08BE00E94830280912C028F5F809342
:101B90002C02CFBFC0910603809103038C3008F064
:101BA00051C061E08C2F0E948302E09103038E2FCD
:101BB00090E0DC01AA0FBB1FA80FB91FA652BD4FB2
:101BC000CF738C91807C8C2B8C9310920403109299
:101BD00005032CE08E2F622F0E94B010829FB0016F
:101BE000112430E020E0AB01420F531FDA01AA0FAD
:101BF000BB1FA40FB51FA652BD4F9C9196FD16C0EA
:101C00002F5F3F4F2C30310571F781110FC01092BB
:101C1000800082E080938100109285001092840001
:101C2000B19A80916F00826080936F008E2F90E058
:101C3000FC01EE0FFF1FE80FF91FE652FD4F8081F8
:101C40008064808390E080E00E948F0010922B02DD
:101C500010922A0210922902109228020E9449032F
:101C600084ED91E0909327028093260285ED91E028
:101C700090932502809324021092140380911903FB
:101C8000823018F098E0909314038093170362E376
:101C900070E080E090E00E94E40260911A038FE01F
:101CA00093E00E940E0468EE73E080E090E00E94F2
:101CB000E40260E38FE093E00E941D09CBE4D6E4E8
:101CC000CE010197F1F760E38FE093E00E941D09D8
:101CD0002197F1F760E38FE093E00E941D0983E50F
:101CE00092E00197F1F760E28FE093E00E941D0916
:101CF00060911403606240E08FE093E00E94360937
:101D000084E08093150340E06CE08FE093E00E9454
:101D1000360940E061E08FE093E00E943609CBE3B2
:101D2000DFE1CE010197F1F782E08093160340E0F6
:101D300066E08FE093E00E94360940E062E08FE0C9
:101D400093E00E9436092197F1F788E080931A0307
:101D500060E08FE093E00E940E0460E082E00E9469
:101D60004D0982E491E00E94D80862E086E00E947A
:101D70008302C0E0D0E086E00E942C02892B09F0AB
:101D8000CEC061E080910B030E9455028091270331
:101D900090912803A0912903B0912A038938934197
:101DA000A105B10508F0A3C08091230390912403FD
:101DB000A0912503B091260380931B0390931C03ED
:101DC000A0931D03B0931E038BE293E00E94EF06E5
:101DD0008823E9F18BE293E00E94F9048823B9F1AA
:101DE00061E080910D030E9455029EE2E92E93E08E
:101DF000F92E10E000E0F70161917F01C8010E9417
:101E00003F100F5F1F4F04301105A9F761E086E016
:101E10000E944D098FE491E00E94D80864E670E0CA
:101E200080E090E00E94E40260E080910D030E9457
:101E3000550264E873E080E090E00E94E40261E013
:101E400086E00E944D0985E591E00E94D8088091C6
:101E5000230390912403A0912503B0912603409180
:101E60002703509128036091290370912A03840F5E
:101E7000951FA61FB71F40911B0350911C03609133
:101E80001D0370911E03841B950BA60BB70B80934B
:101E9000270390932803A0932903B0932A03109259
:101EA0001F0310922003109221031092220310921C
:101EB0001B0310921C0310921D0310921E0366CF89
:101EC0004FE062E08BE293E00E945E05C3E062E3D4
:101ED00070E080E090E00E94E40262E08BE293E038
:101EE0000E94400584FFDDCDC15089F7DACD109204
:101EF0002703109228031092290310922A0360E00E
:101F000080910B030E945502209709F434CF0E9460
:101F1000C001882309F42FCF0E9400002CCF8DE24E
:101F2000E82E82E0F82E10E000E0C8010E94371091
:101F3000F70181937F010F5F1F4F04301105A9F74F
:101F40008BE293E00E94EF06882309F489C08BE2BC
:101F500093E00E94F904882309F482C090912E0333
:101F600080912D02981312C090912F0380912E0220
:101F700098130CC090912F0280913003981306C0E3
:101F80009091300280913103981731F161E0809196
:101F90000D030E94550261E080910B030E945502DF
:101FA00061E086E00E944D098CE591E00E94D8082E
:101FB00060ED77E080E090E00E94E40261E086E07E
:101FC0000E944D0986E591E00E94D80860E080916A
:101FD0000D030E94550293CF8091080391E0892759
:101FE00080930803882309F48FCF61E080910D036B
:101FF0000E94550261E0809109030E94550261E050
:1020000086E00E944D0982E691E00E94D80864E6CD
:1020100070E080E090E00E94E40260E080910D03B7
:102020000E94550260E0809109030E94550284EBF2
:1020300090E00E948F0068E873E180E090E00E94E9
:10204000E40261E086E00E944D0986E591E00E948D
:10205000D80890E080E00E948F001092080354CFCF
:1020600064EF71E080E090E00E94E4024DCFF999C6
:10207000FECF92BD81BDF89A992780B50895262F8D
:10208000F999FECF1FBA92BD81BD20BD0FB6F8945D
:10209000FA9AF99A0FBE01960895052E97FB1EF441
:1020A00000940E94641057FD07D00E947F1007FC27
:1020B00003D04EF40C9464105095409530952195C2
:1020C0003F4F4F4F5F4F0895909580957095619564
:1020D0007F4F8F4F9F4F08950E94A110A59F900D95
:1020E000B49F900DA49F800D911D11240895B7FFFA
:1020F0000C946C100E946C10821B930B0895A1E24B
:102100001A2EAA1BBB1BFD010DC0AA1FBB1FEE1F71
:10211000FF1FA217B307E407F50720F0A21BB30BBC
:10212000E40BF50B661F771F881F991F1A9469F738
:1021300060957095809590959B01AC01BD01CF0194
:102140000895A29FB001B39FC001A39F700D811D90
:102150001124911DB29F700D811D1124911D0895B0
:10216000991B79E004C0991F961708F0961B881FE9
:102170007A95C9F780950895EE0FFF1F0590F491A9
:08218000E02D0994F894FFCF53
:102188000000400014005400000000005301D60174
:10219800F400A00125010301170100000000DF037E
:1021A800B203F6048803AB03980389030000000018
:1021B8005207EF06F904000000008009D601F60472
:1021C800F5045B5B4155544F444F4F525D5D0057DA
:1021D800524954450020202020202000434C4F53D2
:0821E80045004F50454E000078
:00000001FF
