:020000040000FA
:100000000C9462000C948A000C948A000C948A0070
:100010000C948A000C948A000C948A000C948A0038
:100020000C948A000C948A000C948A000C9481072A
:100030000C948A000C948A000C948A000C948A0018
:100040000C9437070C948A000C9405070C94DF0677
:100050000C948A000C948A000C948A000C948A00F8
:100060000C948A000C948A000000000025002800EF
:100070002B0000000000240027002A0000000000E0
:1000800023002600290004040404040404040202DA
:100090000202020203030303030301020408102007
:1000A0004080010204081020010204081020000012
:1000B0000008000201000003040700000000000027
:1000C00000003D0811241FBECFEFD8E0DEBFCDBF3A
:1000D00011E0A0E0B1E0EAE9F6E102C005900D927E
:1000E000A032B107D9F722E0A0E2B1E001C01D9231
:1000F000AF30B207E1F710E0C2E6D0E004C02197CC
:10010000FE010E94450BC136D107C9F70E94D208F3
:100110000C944B0B0C9400008F929F92AF92BF9265
:10012000FF920F931F93CF93DF93F090ED012BE09D
:100130002F1508F44CC02091EF0108E512E0021BD6
:10014000110927FD1395000F111F000F111F20919A
:10015000EE01C8E8D0E0C21BD10927FDD395CC0F32
:10016000DD1FCC0FDD1F4E010D2E000CAA08BB08B1
:100170009801012E000C440B550B281939094A0926
:100180005B09DC010E94000B24EB30E040E050E012
:100190000E94D60A820E931EA41EB51E8C169D06C2
:1001A0002CF0E801801691060CF4E4012297CC0FA4
:1001B000DD1F2FB7F8948F2D90E0FC01EE0FFF1F8D
:1001C000E80FF91FE853FE4FD283C1832FBFDF91A1
:1001D000CF911F910F91FF90BF90AF909F908F9004
:1001E00008958CBD9DBD0895FC01538D448D252F30
:1001F00030E0842F90E0821B930B541710F0CF96C1
:10020000089501970895FC01918D828D981761F0F2
:10021000A28DAE0FBF2FB11D5D968C91928D9F5F09
:100220009F73928F90E008958FEF9FEF0895FC01E8
:10023000918D828D981731F0828DE80FF11D858D9B
:1002400090E008958FEF9FEF0895FC01918D228D2E
:10025000892F90E0805C9F4F821B91098F739927B3
:100260000895FC01A48DA80FB92FB11DA35ABF4F4B
:100270002C91848D90E001968F739927848FA689A5
:10028000B7892C93A089B1898C91837080648C93F9
:10029000938D848D981306C00288F389E02D8081A8
:1002A0008F7D80830895EF92FF920F931F93CF93DA
:1002B000DF93EC0181E0888F9B8D8C8D98131AC0A1
:1002C000E889F989808185FF15C09FB7F894EE8988
:1002D000FF896083E889F9898081837080648083E5
:1002E0009FBF81E090E0DF91CF911F910F91FF9030
:1002F000EF900895F62E0B8D10E00F5F1F4F0F73D8
:100300001127E02E8C8D8E110CC00FB607FCFACF92
:10031000E889F989808185FFF5CFCE010E943101FE
:10032000F1CFEB8DEC0FFD2FF11DE35AFF4FF08263
:100330009FB7F8940B8FEA89FB8980818062CFCFC9
:10034000CF93DF93EC01888D8823B9F0AA89BB890C
:10035000E889F9898C9185FD03C0808186FD0DC0F7
:100360000FB607FCF7CF8C9185FFF2CF808185FF18
:10037000EDCFCE010E943101E9CFDF91CF910895F9
:100380008BE291E00E94250121E0892B09F420E015
:10039000822F089580E090E0892B29F00E94C0010F
:1003A00081110C9400000895AF92BF92CF92DF921A
:1003B000EF92FF920F931F93CF93DF936C017B011A
:1003C0008B01040F151FEB015E01AE18BF08C017AB
:1003D000D10759F06991D601ED91FC910190F0811E
:1003E000E02DC6010995892B79F7C501DF91CF91E1
:1003F0001F910F91FF90EF90DF90CF90BF90AF9043
:100400000895833081F028F4813099F08230A9F08A
:1004100008958730A9F08830C9F08430B1F4809114
:1004200080008F7D03C0809180008F778093800053
:10043000089584B58F7784BD089584B58F7DFBCFF3
:100440008091B0008F778093B00008958091B000C4
:100450008F7DF9CF1F93CF93DF93282F30E0F901E1
:10046000E255FF4F8491F901E656FF4FD491F9010F
:10047000EA57FF4FC491CC23A9F0162F81110E9497
:100480000102EC2FF0E0EE0FFF1FE859FF4FA5919E
:10049000B4918FB7F894EC91111108C0D095DE2378
:1004A000DC938FBFDF91CF911F910895DE2BF8CFA2
:1004B000CF93DF9390E0FC01E656FF4F24918A57DB
:1004C0009F4FFC0184918823D1F090E0880F991F01
:1004D000FC01EE58FF4FA591B491FC01E859FF4F84
:1004E000C591D49161110EC09FB7F8948C91E22F01
:1004F000E0958E238C932881E223E8839FBFDF91D0
:10050000CF9108958FB7F894EC91E22BEC938FBFC5
:10051000F6CF3FB7F8948091220190912301A091EA
:100520002401B091250126B5A89B05C02F3F19F0E5
:100530000196A11DB11D3FBFBA2FA92F982F882763
:10054000BC01CD01620F711D811D911D42E0660F3E
:10055000771F881F991F4A95D1F708958F929F9210
:10056000AF92BF92CF92DF92EF92FF924B015C016C
:100570000E9489026B017C010E9489026C197D092D
:100580008E099F09683E734081059105A8F321E01B
:10059000821A9108A108B10888EEC80E83E0D81E1F
:1005A000E11CF11C81149104A104B10429F7FF900E
:1005B000EF90DF90CF90BF90AF909F908F90089575
:1005C000BC016E5F7F4FDC01ED91FC910190F081E9
:1005D000E02D40E0099591E0811190E0892F089588
:1005E00008958EBD00000DB407FEFDCF8EB50895B1
:1005F000DF92EF92FF920F931F93CF93DF937C01D3
:10060000062FD42E152F80E590E00E94F10060E0C7
:10061000F70186850E942A0282E10E94F102CD2D17
:10062000D12F0C0F1D2F111DC017D10721F089915B
:100630000E94F102F9CF61E0F7018685DF91CF9149
:100640001F910F91FF90EF90DF900C942A021F935F
:10065000CF93DF93EC01162F80E590E00E94F1002C
:1006600060E08E850E942A02812F80680E94F1023C
:1006700080E00E94F102182F61E08E850E942A021C
:10068000812FDF91CF911F9108950F931F93CF93E7
:10069000DF93EC01062F142F80E590E00E94F1001B
:1006A00060E08E850E942A02802F0E94F102812F35
:1006B0000E94F10261E08E85DF91CF911F910F9131
:1006C0000C942A02CF92DF92EF92FF920F931F9326
:1006D000CF93DF93EC016B01F42E890140E062E0DF
:1006E0000E94450344E06AE0CE010E94450340E8D1
:1006F00064E1CE010E944503A6016F2DCE010E9448
:10070000F80243E062E0CE010E9445038FB7F894FF
:10071000C0902701D0902801E0902901F0902A0193
:100720008FBF89E5C80ED11CE11CF11C6AE0CE0127
:100730000E94270382FF1BC040E062E0CE010E94BE
:10074000450364E4CE010E942703F801808362E43C
:10075000CE010E942703F801818380E0DF91CF91D1
:100760001F910F91FF90EF90DF90CF9008952FB7DA
:10077000F8948091270190912801A0912901B091CE
:100780002A012FBF8C159D05AE05BF0578F283E0C9
:10079000E5CF2F923F924F925F926F927F928F920E
:1007A0009F92AF92CF92DF92EF92FF920F931F939F
:1007B000CF93DF9300D0CDB7DEB74C012B01D42E01
:1007C000390180E0E114F10411F0F70180813C2C43
:1007D000329490EF3922380E40E062E0C4010E946A
:1007E00045034FE768E0C4010E94450340E864E127
:1007F000C4010E944503A2016D2DC4010E94F802AC
:10080000432D6AE1C4010E9445034CE062E0C4014B
:100810000E9445036AE1C4010E942703482F4068F3
:100820006AE1C4010E9445038FB7F8942090270124
:10083000309028014090290150902A018FBFF4E2A6
:100840002F0E311C411C511C68E0C4010E9427037B
:10085000982F907309F0C0C080FF15C083E00F90FF
:100860000F90DF91CF911F910F91FF90EF90DF904C
:10087000CF90AF909F908F907F906F905F904F90B0
:100880003F902F9008952FB7F89480912701909171
:100890002801A0912901B0912A012FBF821593054B
:1008A000A405B50588F2DACF6114710409F469C0B2
:1008B0000115110509F465C064E1C4010E94270314
:1008C000382EF8018081831508F480C030823320EF
:1008D000E1F180E590E00E94F10060E0F40186859E
:1008E0000E942A023A9482E90E94F102CC20B1F0DF
:1008F0008FEF90E09C0102C0220F331FCA94E2F7F1
:10090000690182E90E94F1029C2D9095F3012081FA
:1009100092238C21982B9083CC24C39423014C0CDC
:10092000511CC31440F482E90E94F102F201819348
:100930002F01C394F6CF80E00E94F102F201808380
:1009400061E0F40186850E942A0268E1C4010E94E8
:1009500027038770E114F10411F0F701808323FC71
:1009600037C061147104B1F10115110599F1AA2084
:1009700089F1F8014081413031F4843029F58FEF5D
:100980006ECF80E0ECCF4230F8F081111DC04250B4
:100990009E012F5F3F4FB301C4010E94620381118A
:1009A0005ECFF8019081690E711CF30132972081AE
:1009B0009981291309C0F1E06F1A7108F3012081B0
:1009C0009A81291709F44BCF87E049CF84E047CFBC
:1009D00082E045CF80E043CF6CE0C4010E94270352
:1009E000282E837109F460CF81E039CF8F929F92D6
:1009F000AF92CF92EF92FF920F931F93CF93DF931B
:100A000000D000D01F92CDB7DEB74C0182E08D83BD
:100A100040E064E2C4010E94450340E066E2C40194
:100A20000E94450346E268E4C4010E94450386E251
:100A30008B838D818230D8F16CE1C4010E94270341
:100A4000482F4F776CE1C4010E94450387E08C83F7
:100A5000A12CC12CCE0104967C018E010B5F1F4F8F
:100A60009E012F5F3F4F41E0BE016D5F7F4FC4018C
:100A70000E94C903982F811117C08D818230B9F46B
:100A80008C81811114C081E00F900F900F900F9016
:100A90000F90DF91CF911F910F91FF90EF90CF902A
:100AA000AF909F908F90089581E0923069F380E03D
:100AB000EBCF2F923F924F925F926F927F928F92E5
:100AC0009F92AF92BF92CF92DF92EF92FF920F93DD
:100AD0001F93CF93DF93CDB7DEB72D970FB6F89462
:100AE000DEBF0FBECDBF16E0413508F04AC1342E3F
:100AF0003B014C016CE10E942703482F4F776CE1CA
:100B0000C4010E94450383E98983332029F081E0F1
:100B1000F3019081953008F480E022242394B12CD5
:100B20009B2D990F990F990FD32CD91AD7FCD12C43
:100B300032E0882319F098E89B8333E021E09D2D73
:100B4000977009F420E09D2D959595959595290F21
:100B5000C9F094E0811193E0291708F4922FEB2D4E
:100B6000F0E03196E60DF71D232F4191A1E0B0E0B2
:100B7000AC0FBD1FA20FB11D4C932F5F422F431B23
:100B8000491798F3882311F0F8E0DF0E8FE18D15F7
:100B90000CF082C090E79A838B819C8189279D818C
:100BA00089279E8189278F839E01285F3F4F47E0D9
:100BB000BE016F5F7F4FC4010E946203182F811135
:100BC000E0C01A86E3E0EB87DC86CE0107962C01B5
:100BD00099E09D87CA844C2D4295407F4C0D6AE177
:100BE000C4010E944503A12CCE010A967C018E010E
:100BF000055F1F4F92014D85BE016F5F7F4FC4019E
:100C00000E94C903182F823009F065C06CE1C4014D
:100C10000E94270385FDB5C08F7109F480E2282F5B
:100C200030E04D2DDD0C550B421753070CF09DC0E5
:100C3000D82EE82FE595E595E595EF5F982F97700D
:100C400081E009F480E0E80F81E090E08C0F9D1FC7
:100C50008E0F911DFC01215031092770332781E04F
:100C600090E002C0880F991F2A95E2F79C018081CD
:100C7000822B80838BCF85E98983332031F081E01B
:100C8000F3019081983008F04BCF80E049CF87E99D
:100C9000898326E0B22EF9CF9D2D97709A878D2DEE
:100CA0008595859585958E5F282F2295207F290F24
:100CB0002A8321E0911101C020E0280F2D874424D0
:100CC0004394512C4C0E5D1E480E511CE9E0E81B6C
:100CD000EB87DC867FCF811154C080E2D82E9C85C3
:100CE00090320CF457CF8B81883809F040C083E0F4
:100CF00093E0EB2DF0E03196E60DF71D980FA1E0A3
:100D0000B0E0AC0FBD1FA80FB11D2C9121938F5FD8
:100D10008913F5CFBB84E3E0BE124DC08A858111F3
:100D20004AC09E012D5F3F4F41E0B201C4010E94C5
:100D30006203182F811125C09B81F20181819813D4
:100D40003CC09C818281981338C0808182FF12C090
:100D50002394F2E02F1609F48ECF83E0281609F4CD
:100D600096CF91E0291609F4CECE15E00AC082E0B4
:100D700094E0BFCFF3018387822D880F820D8F5FB0
:100D80008083812F2D960FB6F894DEBF0FBECDBFA6
:100D9000DF91CF911F910F91FF90EF90DF90CF9057
:100DA000BF90AF909F908F907F906F905F904F908B
:100DB0003F902F90089511E0E4CF17E0E2CF1F920B
:100DC0000F920FB60F9211242F933F934F935F937F
:100DD0006F937F938F939F93AF93BF93EF93FF9303
:100DE0008BE291E00E943101FF91EF91BF91AF91B1
:100DF0009F918F917F916F915F914F913F912F9133
:100E00000F900FBE0F901F9018951F920F920FB664
:100E10000F9211242F938F939F93EF93FF93E09161
:100E20003B01F0913C018081E0914101F091420150
:100E300082FD1BC09081809144018F5F8F73209150
:100E40004501821741F0E0914401F0E0E55DFE4F7D
:100E5000958F80934401FF91EF919F918F912F91F6
:100E60000F900FBE0F901F9018958081F4CF1F92A6
:100E70000F920FB60F9211242F933F938F939F934E
:100E8000AF93BF938091270190912801A0912901F0
:100E9000B0912A013091210123E0230F2D3758F51D
:100EA0000196A11DB11D20932101809327019093EC
:100EB0002801A0932901B0932A01809122019091E9
:100EC0002301A0912401B09125010196A11DB11D1E
:100ED0008093220190932301A0932401B0932501D4
:100EE000BF91AF919F918F913F912F910F900FBE26
:100EF0000F901F90189526E8230F0296A11DB11D93
:100F0000D2CF1F920F920FB60F9211242F933F93BF
:100F10004F935F936F937F938F939F93AF93BF9301
:100F2000CF93DF93EF93FF9380912001C091EC0169
:100F3000D0E087FF24C01092850010928400809139
:100F400020018F5F8093200180912001082E000CEA
:100F5000990B8C179D0724F4809120018C30C4F1EB
:100F60008091840090918500049680349C4908F417
:100F70007AC08091840090918500049676C080911B
:100F80002001082E000C990B8C179D07C4F6E091E8
:100F900020018E2FEE0F990BFC01EE0FFF1FE80FC3
:100FA000F91FE853FE4F808186FFC9CFE0912001F1
:100FB0008E2FEE0F990BFC01EE0FFF1FE80FF91FAC
:100FC000E853FE4F808160E08F730E942A02B7CF02
:100FD0002091840030918500E09120018E2FEE0F4A
:100FE000990BFC01EE0FFF1FE80FF91FE853FE4FAE
:100FF00081819281820F931F909389008093880052
:10100000E09120018E2FEE0F990BFC01EE0FFF1FD8
:10101000E80FF91FE853FE4F808186FF11C0E09171
:1010200020018E2FEE0F990BFC01EE0FFF1FE80F32
:10103000F91FE853FE4F808161E08F730E942A02FE
:10104000FF91EF91DF91CF91BF91AF919F918F91E0
:101050007F916F915F914F913F912F910F900FBEB4
:101060000F901F90189580E49CE9909389008093DD
:1010700088008FEF80932001E3CF10922E01109211
:101080002D0188EE93E0A0E0B0E080932F019093D3
:101090003001A0933101B093320188E091E0909348
:1010A0002C0180932B0185EC90E090933801809384
:1010B000370184EC90E090933A018093390180EC01
:1010C00090E090933C0180933B0181EC90E0909301
:1010D0003E0180933D0182EC90E09093400180932B
:1010E0003F0186EC90E09093420180934101109281
:1010F00044011092450110924601109247018091DF
:10110000EC018C3008F04AC091E0980F9093EC010C
:101110008093ED0190E0FC01EE0FFF1FE80FF91F37
:10112000E853FE4F88EB9BE09283818386E090E05A
:101130009093F5018093F40185E090E09093F7019E
:101140008093F60184E090E09093F9018093F80198
:1011500083E090E09093FB018093FA0187E090E0B8
:101160009093FD018093FC018AE191E0909300024D
:101170008093FF018AE080930D0289E080930E0244
:101180001092FE0161E084E00E94580261E083E079
:101190000E94580261E087E00C9458028FEF809320
:1011A000ED01C4CF789484B5826084BD84B581603C
:1011B00084BD85B5826085BD85B5816085BD809122
:1011C0006E00816080936E0010928100809181009A
:1011D0008260809381008091810081608093810092
:1011E000809180008160809380008091B100846054
:1011F0008093B1008091B00081608093B0008091B5
:101200007A00846080937A0080917A008260809373
:101210007A0080917A00816080937A0080917A00D0
:10122000806880937A001092C10061E080910D0285
:101230000E94580261E080910D020E942A02809172
:101240000E028F3F09F460C160E00E9458022091B5
:101250000E0230E0F901E255FF4F8491F901E656A4
:10126000FF4FD491F901EA57FF4FC491C1113DC11D
:1012700061E080910E020E94580260E080910E02AF
:101280000E942A0283E090E00197F1F761E08091EB
:101290000E020E942A0262E370E080E090E00E9469
:1012A000AE0240E064E28FEF91E00E94450340E02F
:1012B00066E28FEF91E00E94450346E268E48FEF1B
:1012C00091E00E94450340E864E58FEF91E00E94C1
:1012D000450349EA66E58FEF91E00E94450343E04C
:1012E00068E58FEF91E00E94450348EE6AE58FEFD5
:1012F00091E00E94450340E46AE28FEF91E00E9492
:1013000045034DE362E28FEF91E00E94450368E2FE
:101310008FEF91E00E942703982F9370933039F05C
:10132000482F436068E28FEF91E00E944503CFB7FA
:10133000F89480912601811127C0E0E9F0E08491C2
:10134000E4EAF0E09491E82FF0E0EE0FFF1FEE5892
:10135000FF4FA591B491EC91E92321F461E08AE07B
:101360000E942A0261E08AE00E9458028CB58061E6
:101370008CBD8CB580648CBD61E08DE00E9458020C
:1013800061E08BE00E945802809126018F5F80937C
:101390002601CFBF8091ED018C3008F054C0C09180
:1013A000F60161E08C2F0E9458028091ED01282FF8
:1013B00030E0F901EE0FFF1FE20FF31FE853FE4F7D
:1013C000CF739081907C9C2B90831092EE011092B1
:1013D000EF012CE0622F0E94390B829FB001112493
:1013E00030E020E0AB01420F531FFA01EE0FFF1F68
:1013F000E40FF51FE853FE4F908196FD16C02F5F56
:101400003F4F2C30310571F781110FC010928000D1
:1014100082E0809381001092850010928400B19A3E
:1014200080916F00826080936F00E091ED018E2FBC
:1014300090E0FC01EE0FFF1FE80FF91FE853FE4F8D
:1014400080818064808390E080E00E948C00C0E016
:10145000D0E08FEF91E00E94F604882309F49FC04A
:101460008FEF91E00E94E002882309F498C09091E8
:10147000020280910001981313C0909103028091A1
:10148000010198130DC090910201809104029813FC
:1014900007C09091030180910502981709F44BC091
:1014A00061E08091FC010E942A0261E08091FA01D2
:1014B0000E942A0260ED77E080E090E00E94AE0298
:1014C00060E08091FC010E942A0260E08091FA01B4
:1014D0000E942A02209709F4BCCF0E94C0018823F1
:1014E00009F4B7CF0E940000B4CF81110E9401021D
:1014F000EC2FF0E0EE0FFF1FE458FF4FA591B491E1
:10150000EC91ED2309F4B4CE4FE062E08FEF91E06F
:101510000E944503C3E062E370E080E090E00E9437
:10152000AE0262E08FEF91E00E94270384FFB9CE04
:10153000C15089F7B6CE8091FE0191E08927809352
:10154000FE01882309F4C6CF61E08091FC010E946E
:101550002A0261E08091F8010E942A0264E670E0AC
:1015600080E090E00E94AE0260E08091FC010E9469
:101570002A0260E08091F8010E942A0284EB90E048
:101580000E948C0068E873E180E090E00E94AE0267
:1015900090E080E00E948C001092FE019BCF64EFEF
:1015A00071E080E090E00E94AE0294CF052E97FBA0
:1015B0001EF400940E94ED0A57FD07D00E94080B0C
:1015C00007FC03D04EF40C94ED0A509540953095ED
:1015D00021953F4F4F4F5F4F08959095809570959F
:1015E00061957F4F8F4F9F4F08950E942A0BA59FB3
:1015F000900DB49F900DA49F800D911D112408950E
:10160000B7FF0C94F50A0E94F50A821B930B08950C
:10161000A1E21A2EAA1BBB1BFD010DC0AA1FBB1FF6
:10162000EE1FFF1FA217B307E407F50720F0A21B68
:10163000B30BE40BF50B661F771F881F991F1A94D5
:1016400069F760957095809590959B01AC01BD01FF
:10165000CF010895A29FB001B39FC001A39F700D59
:10166000811D1124911DB29F700D811D1124911DAA
:101670000895991B79E004C0991F961708F0961BEE
:10168000881F7A95C9F780950895EE0FFF1F059082
:10169000F491E02D0994F894FFCF31B5B91A000008
:1016A00000005301D401F400A0012501030117013A
:0A16B000000000005905F604E002F6
:107E0000112484B714BE81FFF0D085E080938100F7
:107E100082E08093C00088E18093C10086E0809377
:107E2000C20080E18093C4008EE0C9D0259A86E02C
:107E300020E33CEF91E0309385002093840096BBD3
:107E4000B09BFECF1D9AA8958150A9F7CC24DD24C4
:107E500088248394B5E0AB2EA1E19A2EF3E0BF2EE7
:107E6000A2D0813461F49FD0082FAFD0023811F036
:107E7000013811F484E001C083E08DD089C08234E0
:107E800011F484E103C0853419F485E0A6D080C0E4
:107E9000853579F488D0E82EFF2485D0082F10E0AE
:107EA000102F00270E291F29000F111F8ED06801E7
:107EB0006FC0863521F484E090D080E0DECF843638
:107EC00009F040C070D06FD0082F6DD080E0C81688
:107ED00080E7D80618F4F601B7BEE895C0E0D1E017
:107EE00062D089930C17E1F7F0E0CF16F0E7DF06D8
:107EF00018F0F601B7BEE89568D007B600FCFDCFD4
:107F0000A601A0E0B1E02C9130E011968C91119780
:107F100090E0982F8827822B932B1296FA010C0160
:107F200087BEE89511244E5F5F4FF1E0A038BF0790
:107F300051F7F601A7BEE89507B600FCFDCF97BE46
:107F4000E89526C08437B1F42ED02DD0F82E2BD052
:107F50003CD0F601EF2C8F010F5F1F4F84911BD097
:107F6000EA94F801C1F70894C11CD11CFA94CF0C13
:107F7000D11C0EC0853739F428D08EE10CD085E9AC
:107F80000AD08FE07ACF813511F488E018D01DD067
:107F900080E101D065CF982F8091C00085FFFCCF94
:107FA0009093C60008958091C00087FFFCCF809118
:107FB000C00084FD01C0A8958091C6000895E0E648
:107FC000F0E098E1908380830895EDDF803219F02E
:107FD00088E0F5DFFFCF84E1DECF1F93182FE3DFCA
:107FE0001150E9F7F2DF1F91089580E0E8DFEE27F6
:047FF000FF270994CA
:027FFE00040479
:00000001FF
