:100000000C9462000C948A000C948A000C948A0070
:100010000C948A000C948A000C948A000C948A0038
:100020000C948A000C948A000C948A000C94620B45
:100030000C948A000C948A000C948A000C948A0018
:100040000C94F9090C948A000C94C7090C94A1092A
:100050000C948A000C948A000C948A000C948A00F8
:100060000C94430A0C948A0000000000250028002C
:100070002B000000000023002600290000000008DB
:10008000000201000003040700000000000000005F
:1000900000000000240027002A00010204081020AC
:1000A000408001020408102001020408102004040A
:1000B0000404040404040202020202020303030310
:1000C00003031E0C11241FBECFEFD8E0DEBFCDBF4F
:1000D00011E0A0E0B1E0E4E9F0E202C005900D9289
:1000E000A435B107D9F723E0A4E5B1E001C01D9222
:1000F000A731B207E1F710E0C2E6D0E004C02197D3
:10010000FE010E944210C136D107C9F70E94D40CEB
:100110000C9448100C9400008CBD9DBD08958F92E6
:100120009F92AF92BF92FF920F931F93CF93DF9353
:10013000F090EF022BE02F1508F44CC02091F10253
:1001400008E512E0021B110927FD1395000F111F8E
:10015000000F111F2091F002C8E8D0E0C21BD109A6
:1001600027FDD395CC0FDD1FCC0FDD1F4E010D2ECB
:10017000000CAA08BB089801012E000C440B550B7B
:10018000281939094A095B09DC010E94FD0F24EB9B
:1001900030E040E050E00E94D30F820E931EA41E78
:1001A000B51E8C169D062CF0E801801691060CF405
:1001B000E4012297CC0FDD1F2FB7F8948F2D90E02C
:1001C000FC01EE0FFF1FE80FF91FEA53FD4FD2832A
:1001D000C1832FBFDF91CF911F910F91FF90BF90EF
:1001E000AF909F908F900895FC01538D448D252FE3
:1001F00030E0842F90E0821B930B541710F0CF96C1
:10020000089501970895FC01918D828D981761F0F2
:10021000A28DAE0FBF2FB11D5D968C91928D9F5F09
:100220009F73928F90E008958FEF9FEF0895FC01E8
:10023000918D828D981731F0828DE80FF11D858D9B
:1002400090E008958FEF9FEF0895FC01918D228D2E
:10025000892F90E0805C9F4F821B91098F739927B3
:100260000895FC01A48DA80FB92FB11DA35ABF4F4B
:100270002C91848D90E001968F739927848FA689A5
:10028000B7892C93A089B1898C91837080648C93F9
:10029000938D848D981306C00288F389E02D8081A8
:1002A0008F7D80830895EF92FF920F931F93CF93DA
:1002B000DF93EC0181E0888F9B8D8C8D98131AC0A1
:1002C000E889F989808185FF15C09FB7F894EE8988
:1002D000FF896083E889F9898081837080648083E5
:1002E0009FBF81E090E0DF91CF911F910F91FF9030
:1002F000EF900895F62E0B8D10E00F5F1F4F0F73D8
:100300001127E02E8C8D8E110CC00FB607FCFACF92
:10031000E889F989808185FFF5CFCE010E943101FE
:10032000F1CFEB8DEC0FFD2FF11DE35AFF4FF08263
:100330009FB7F8940B8FEA89FB8980818062CFCFC9
:10034000CF93DF93EC01888D8823B9F0AA89BB890C
:10035000E889F9898C9185FD03C0808186FD0DC0F7
:100360000FB607FCF7CF8C9185FFF2CF808185FF18
:10037000EDCFCE010E943101E9CFDF91CF910895F9
:100380008DE192E00E94250121E0892B09F420E013
:10039000822F089580E090E0892B29F00E94C0010F
:1003A00081110C940000089508950895AF92BF92B2
:1003B000CF92DF92EF92FF920F931F93CF93DF9331
:1003C0006C017B018B01040F151FEB015E01AE1860
:1003D000BF08C017D10759F06991D601ED91FC9182
:1003E0000190F081E02DC6010995892B79F7C501AF
:1003F000DF91CF911F910F91FF90EF90DF90CF9001
:10040000BF90AF900895833081F028F4813099F047
:100410008230A9F008958730A9F08830C9F084307F
:10042000B1F4809180008F7D03C0809180008F7730
:1004300080938000089584B58F7784BD089584B536
:100440008F7DFBCF8091B0008F778093B0000895AF
:100450008091B0008F7DF9CFCF93DF93282F30E0CC
:10046000F901E458FF4F8491F901E656FF4FD4910A
:10047000F901E255FF4FC491CC23A1F081110E94F4
:100480000302EC2FF0E0EE0FFF1FEE58FF4FA59197
:10049000B491EC91ED2381E090E009F480E0DF91EC
:1004A000CF91089580E090E0FACF1F93CF93DF9330
:1004B000282F30E0F901E458FF4F8491F901E65606
:1004C000FF4FD491F901E255FF4FC491CC23A9F01D
:1004D000162F81110E940302EC2FF0E0EE0FFF1F98
:1004E000E859FF4FA591B4918FB7F894EC91111191
:1004F00008C0D095DE23DC938FBFDF91CF911F9191
:100500000895DE2BF8CFCF93DF9390E0FC01E65601
:10051000FF4F249182559F4FFC0184918823C9F09D
:1005200090E0880F991FFC01E057FF4FA591B4910F
:10053000FC01E859FF4FC591D49161110DC09FB7DF
:10054000F8948C91209582238C938881282328838A
:100550009FBFDF91CF910895623051F49FB7F89417
:100560003C91822F809583238C93E8812E2BEFCFB3
:100570008FB7F894EC912E2B2C938FBFEACF3FB717
:10058000F8948091080290910902A0910A02B0911A
:100590000B0226B5A89B05C02F3F19F00196A11D9F
:1005A000B11D3FBFBA2FA92F982F8827BC01CD01BD
:1005B000620F711D811D911D42E0660F771F881F1C
:1005C000991F4A95D1F708958F929F92AF92BF924B
:1005D000CF92DF92EF92FF924B015C010E94BF022B
:1005E0006B017C010E94BF026C197D098E099F0975
:1005F000683E734081059105A8F321E0821A9108B5
:10060000A108B10888EEC80E83E0D81EE11CF11CD9
:1006100081149104A104B10429F7FF90EF90DF90B9
:10062000CF90BF90AF909F908F9008952091BD0183
:10063000260F3327331F21323105ECF42091E101DD
:10064000FC0190E080E0243069F082E00895A09100
:10065000BD012191AC0143565E4FA40FB52FB11DD2
:100660002C930196861798F38091BD01680F6093D3
:10067000BD0180E0089581E008951092E10181E0DC
:100680008093E3011092E20161E082E10E94550251
:1006900061E083E10E945502E9EBF0E080818E7F0A
:1006A000808380818D7F808388E48093B80085E497
:1006B0008093BC000895CF93DF9391E090939C01C9
:1006C0008823B9F0C091B800D091BA008091BC00E5
:1006D0008A7B8093BC0060E082E10E94550260E06A
:1006E00083E10E9455020E943D03D093BA00C0935B
:1006F000B800DF91CF9108950895E09113028091A1
:100700001202E81730F4F0E0E958FE4F808190E0E3
:1007100008958FEF9FEF0895909113028091120238
:100720002FEF3FEF981748F4E92FF0E0E958FE4F1C
:10073000208130E09F5F90931302C901089580915A
:10074000120290911302891B990B0895CF92DF92A8
:10075000EF92FF920F931F93CF93DF937C01CB0116
:100760008A0120917601222389F0EB016B01C40EEE
:10077000D51ECC15DD0569F06991D701ED91FC918D
:100780000190F081E02DC7010995F3CF642F0E94FD
:100790001603C801DF91CF911F910F91FF90EF9049
:1007A000DF90CF900895CF93DF931F92CDB7DEB740
:1007B0006983209176012223F9F0209110022032E2
:1007C00058F021E030E0FC013383228390E080E0A8
:1007D0000F90DF91CF91089580911102E82FF0E002
:1007E000EA5AFE4F998190838F5F80931102809324
:1007F000100281E090E0ECCF61E0CE0101960E9412
:100800001603F7CFCF92DF92EF92FF920F931F93D1
:10081000CF93DF93FC01C48121E020937601C09344
:10082000550110921102109210028385682B8AEBF9
:1008300092E00E94D303D0911002D13208F092C00E
:100840000E94BF026B017C018091E101811165C0B2
:1008500082E08093E10181E08093E3018FEF809358
:10086000E00110920502D0930402A6E5B1E0E4EEA7
:10087000F1E080E0D81385C0109206028091060254
:10088000CC0FC82BC09306028091E201813009F0A1
:100890007CC01092E2010E94BF026B017C0180913A
:1008A00006028093BB008091980190919901A091DC
:1008B0009A01B0919B01892B8A2B8B2B99F00E9476
:1008C000BF02009198011091990120919A013091F5
:1008D0009B016C197D098E099F09061717072807C8
:1008E0003907E0F18091BC0083FDD9CF85EC80937E
:1008F000BC000E94BF026B017C018091E10182304B
:1009000009F445C08091E0018F3F61F18091E001E1
:10091000803241F18091E00125C080919801909151
:100920009901A0919A01B0919B01892B8A2B8B2B65
:1009300009F48ACF0E94BF02009198011091990199
:1009400020919A0130919B016C197D098E099F09B4
:10095000061717072807390708F076CF8091970107
:100960000E945B0310921102109210021092760105
:10097000DF91CF911F910F91FF90EF90DF90CF907B
:1009800008959D9191938F5F75CF85EEB0CF809143
:10099000980190919901A0919A01B0919B01892BA6
:1009A0008A2B8B2B09F4A9CF0E94BF0200919801DA
:1009B0001091990120919A0130919B016C197D0948
:1009C0008E099F09061717072807390708F095CFE2
:1009D000C5CF089590E080E00895BC016E5F7F4F21
:1009E000DC01ED91FC910190F081E02D40E0099552
:1009F00091E0811190E0892F089508958EBD000047
:100A00000DB407FEFDCF8EB50895DF92EF92FF92F1
:100A10000F931F93CF93DF937C01062FD42E152FB6
:100A200080E590E00E948C0060E0F70186850E94DE
:100A3000550282E10E94FE04CD2DD12F0C0F1D2FF7
:100A4000111DC017D10721F089910E94FE04F9CF32
:100A500061E0F7018685DF91CF911F910F91FF90A3
:100A6000EF90DF900C9455021F93CF93DF93EC012E
:100A7000162F80E590E00E948C0060E08E850E9439
:100A80005502812F80680E94FE0480E00E94FE04CF
:100A9000182F61E08E850E945502812FDF91CF9142
:100AA0001F9108950F931F93CF93DF93EC01062FAF
:100AB000142F80E590E00E948C0060E08E850E94FB
:100AC0005502802F0E94FE04812F0E94FE0461E0E7
:100AD0008E85DF91CF911F910F910C945502CF928B
:100AE000DF92EF92FF920F931F93CF93DF93EC016E
:100AF0006B01F42E890140E062E00E94520544E05F
:100B00006AE0CE010E94520540E864E1CE010E94F5
:100B10005205A6016F2DCE010E94050543E062E05B
:100B2000CE010E9452058FB7F894C0901902D09060
:100B30001A02E0901B02F0901C028FBF89E5C80EDC
:100B4000D11CE11CF11C6AE0CE010E94340582FF39
:100B50001BC040E062E0CE010E94520564E4CE0179
:100B60000E943405F801808362E4CE010E943405BE
:100B7000F801818380E0DF91CF911F910F91FF9069
:100B8000EF90DF90CF9008952FB7F89480911902DD
:100B900090911A02A0911B02B0911C022FBF8C15DC
:100BA0009D05AE05BF0578F283E0E5CF2F923F9219
:100BB0004F925F926F927F928F929F92AF92CF925D
:100BC000DF92EF92FF920F931F93CF93DF9300D0AA
:100BD000CDB7DEB74C012B01D42E390180E0E114F2
:100BE000F10411F0F70180813C2C329490EF39220E
:100BF000380E40E062E0C4010E9452054FE768E011
:100C0000C4010E94520540E864E1C4010E945205FB
:100C1000A2016D2DC4010E940505432D6AE1C401A6
:100C20000E9452054CE062E0C4010E9452056AE154
:100C3000C4010E943405482F40686AE1C4010E9443
:100C400052058FB7F8942090190230901A02409004
:100C50001B0250901C028FBFF4E22F0E311C411C6E
:100C6000511C68E0C4010E943405982F907309F06C
:100C7000C0C080FF15C083E00F900F90DF91CF912F
:100C80001F910F91FF90EF90DF90CF90AF909F90CA
:100C90008F907F906F905F904F903F902F9008952E
:100CA0002FB7F8948091190290911A02A0911B021B
:100CB000B0911C022FBF82159305A405B50588F2DB
:100CC000DACF6114710409F469C00115110509F442
:100CD00065C064E1C4010E943405382EF8018081AA
:100CE000831508F480C030823320E1F180E590E084
:100CF0000E948C0060E0F40186850E9455023A94BF
:100D000082E90E94FE04CC20B1F08FEF90E09C01BC
:100D100002C0220F331FCA94E2F7690182E90E94E0
:100D2000FE049C2D9095F301208192238C21982B19
:100D30009083CC24C39423014C0C511CC31440F465
:100D400082E90E94FE04F20181932F01C394F6CF41
:100D500080E00E94FE04F201808361E0F401868558
:100D60000E94550268E1C4010E9434058770E114B5
:100D7000F10411F0F701808323FC37C06114710482
:100D8000B1F10115110599F1AA2089F1F80140810D
:100D9000413031F4843029F58FEF6ECF80E0ECCF15
:100DA0004230F8F081111DC042509E012F5F3F4F2D
:100DB000B301C4010E946F0581115ECFF8019081DB
:100DC000690E711CF301329720819981291309C0A2
:100DD000F1E06F1A7108F30120819A81291709F453
:100DE0004BCF87E049CF84E047CF82E045CF80E01A
:100DF00043CF6CE0C4010E943405282E837109F4AE
:100E000060CF81E039CF8F929F92AF92CF92EF92D5
:100E1000FF920F931F93CF93DF9300D000D01F92C8
:100E2000CDB7DEB74C0182E08D8340E064E2C401BF
:100E30000E94520540E066E2C4010E94520546E26B
:100E400068E4C4010E94520586E28B838D81823062
:100E5000D8F16CE1C4010E943405482F4F776CE152
:100E6000C4010E94520587E08C83A12CC12CCE01C5
:100E700004967C018E010B5F1F4F9E012F5F3F4F39
:100E800041E0BE016D5F7F4FC4010E94D605982FDF
:100E9000811117C08D818230B9F48C81811114C009
:100EA00081E00F900F900F900F900F90DF91CF91F6
:100EB0001F910F91FF90EF90CF90AF909F908F90E8
:100EC000089581E0923069F380E0EBCF2F923F925A
:100ED0004F925F926F927F928F929F92AF92BF924A
:100EE000CF92DF92EF92FF920F931F93CF93DF93F6
:100EF000CDB7DEB72D970FB6F894DEBF0FBECDBFCE
:100F000016E0413508F04AC1342E3B014C016CE13A
:100F10000E943405482F4F776CE1C4010E945205AE
:100F200083E98983332029F081E0F30190819530B2
:100F300008F480E022242394B12C9B2D990F990F63
:100F4000990FD32CD91AD7FCD12C32E0882319F071
:100F500098E89B8333E021E09D2D977009F420E011
:100F60009D2D959595959595290FC9F094E0811142
:100F700093E0291708F4922FEB2DF0E03196E60D5F
:100F8000F71D232F4191A1E0B0E0AC0FBD1FA20FD0
:100F9000B11D4C932F5F422F431B491798F38823B1
:100FA00011F0F8E0DF0E8FE18D150CF082C090E7B4
:100FB0009A838B819C8189279D8189279E8189279E
:100FC0008F839E01285F3F4F47E0BE016F5F7F4FD9
:100FD000C4010E946F05182F8111E0C01A86E3E05A
:100FE000EB87DC86CE0107962C0199E09D87CA84A9
:100FF0004C2D4295407F4C0D6AE1C4010E94520580
:10100000A12CCE010A967C018E01055F1F4F920133
:101010004D85BE016F5F7F4FC4010E94D605182F1A
:10102000823009F065C06CE1C4010E94340585FD81
:10103000B5C08F7109F480E2282F30E04D2DDD0C12
:10104000550B421753070CF09DC0D82EE82FE5959D
:10105000E595E595EF5F982F977081E009F480E0C2
:10106000E80F81E090E08C0F9D1F8E0F911DFC0119
:10107000215031092770332781E090E002C0880FAA
:10108000991F2A95E2F79C018081822B80838BCF68
:1010900085E98983332031F081E0F3019081983034
:1010A00008F04BCF80E049CF87E9898326E0B22E54
:1010B000F9CF9D2D97709A878D2D8595859585956E
:1010C0008E5F282F2295207F290F2A8321E09111FE
:1010D00001C020E0280F2D8744244394512C4C0E4E
:1010E0005D1E480E511CE9E0E81BEB87DC867FCFD4
:1010F000811154C080E2D82E9C8590320CF457CFD9
:101100008B81883809F040C083E093E0EB2DF0E05C
:101110003196E60DF71D980FA1E0B0E0AC0FBD1FB2
:10112000A80FB11D2C9121938F5F8913F5CFBB843C
:10113000E3E0BE124DC08A8581114AC09E012D5F39
:101140003F4F41E0B201C4010E946F05182F811189
:1011500025C09B81F201818198133CC09C818281D2
:10116000981338C0808182FF12C02394F2E02F16BA
:1011700009F48ECF83E0281609F496CF91E0291662
:1011800009F4CECE15E00AC082E094E0BFCFF301AF
:101190008387822D880F820D8F5F8083812F2D960C
:1011A0000FB6F894DEBF0FBECDBFDF91CF911F9178
:1011B0000F91FF90EF90DF90CF90BF90AF909F90F6
:1011C0008F907F906F905F904F903F902F900895F9
:1011D00011E0E4CF17E0E2CFFC0101900020E9F735
:1011E0003197AF01481B590BBC018BE093E00C9485
:1011F000D60185ED8093BC00809198019091990172
:10120000A0919A01B0919B010796A11DB11D23E009
:10121000B695A795979587952A95D1F72091BC000B
:1012200024FD03C01092E10108954091980150916E
:10123000990160919A0170919B01452B462B472B98
:1012400069F30097A105B10541F025E32A95F1F76F
:1012500000000197A109B109E1CF809197010C9499
:101260005B030F931F93CF938C01C62F0E94020440
:101270006C2F6460C8010E9402046C2F6B7FC80150
:101280000E94020483EC90E00197F1F7CF911F9147
:101290000F9108950F931F93CF93DF938C01D62F57
:1012A000C42F607F642B0E94310980E1D89FB00178
:1012B00011246C2BC801DF91CF911F910F910C94D9
:1012C0003109CF93DF93CDB7DEB728970FB6F894E7
:1012D000DEBF0FBECDBF98E0E0E0F1E0DE01119689
:1012E00001900D929A95E1F790911303981708F4E5
:1012F0008FEF90E0880F991F21E030E02C0F3D1F09
:10130000820F931FFC016081606840E08BE093E0F6
:1013100028960FB6F894DEBF0FBECDBFDF91CF91F8
:101320000C944A0940E061E00E944A098BE39FE186
:101330000197F1F7089541E00E944A0981E090E0A9
:1013400008951F920F920FB60F9211242F933F937F
:101350004F935F936F937F938F939F93AF93BF93BD
:10136000EF93FF938DE192E00E943101FF91EF91A5
:10137000BF91AF919F918F917F916F915F914F91AD
:101380003F912F910F900FBE0F901F9018951F92B5
:101390000F920FB60F9211242F938F939F93EF9379
:1013A000FF93E0912D02F0912E028081E0913302B3
:1013B000F091340282FD1BC09081809136028F5FD4
:1013C0008F7320913702821741F0E0913602F0E0EE
:1013D000E35EFD4F958F80933602FF91EF919F91D1
:1013E0008F912F910F900FBE0F901F9018958081B5
:1013F000F4CF1F920F920FB60F9211242F933F93A9
:101400008F939F93AF93BF938091190290911A028B
:10141000A0911B02B0911C023091070223E0230F20
:101420002D3758F50196A11DB11D20930702809319
:10143000190290931A02A0931B02B0931C02809190
:10144000080290910902A0910A02B0910B02019644
:10145000A11DB11D8093080290930902A0930A0276
:10146000B0930B02BF91AF919F918F913F912F91BC
:101470000F900FBE0F901F90189526E8230F02962D
:10148000A11DB11DD2CF1F920F920FB60F92112442
:101490002F933F934F935F936F937F938F939F937C
:1014A000AF93BF93EF93FF938091B900887F80360D
:1014B00009F44AC0F0F5883209F4A7C018F5803164
:1014C00009F49BC0B8F4882309F4F9C0883009F402
:1014D00094C0FF91EF91BF91AF919F918F917F91B8
:1014E0006F915F914F913F912F910F900FBE0F9091
:1014F0001F901895883109F488C0803251F7809385
:10150000E00114C0803409F49DC040F48033B9F385
:101510008833F9F68093E00185ECB0C0803509F49A
:1015200085C0883509F496C0883499F60E94F90878
:10153000D0CF883909F48CC038F5883729F050F4B9
:10154000883611F0803729F683E08093E10110920C
:10155000DF0157C0883809F47BC0803919F0803822
:1015600009F0B7CF8091DF01803208F071C0E091BF
:10157000DF0181E08E0F8093DF018091BB00F0E0FE
:10158000E154FE4F80833DC0803B39F0E0F4803A67
:1015900009F479C0883A09F09CCF84E08093E10196
:1015A0001092BE011092BD01E0910E02F0910F0267
:1015B00009958091BD0181110FC081E08093BD012B
:1015C00010929D0109C0803C09F4A6CF883C09F423
:1015D000A3CF883B09F07DCFE091BE0181E08E0F63
:1015E0008093BE01F0E0E356FE4F80818093BB0004
:1015F0009091BE018091BD0129C080910602809327
:10160000BB0085EC8093BC0064CF90910502809173
:101610000402981758F5E091050281E08E0F80933F
:101620000502F0E0EC51FE4F8081E9CFE091050228
:1016300081E08E0F809305028091BB00F0E0EC51B9
:10164000FE4F808390910502809104029817C8F2A2
:1016500085E8D8CFE091050281E08E0F80930502E6
:101660008091BB00F0E0EC51FE4F80838091E3015C
:1016700081115CCF81E08093E20184EA8093BC0019
:101680001092E10126CF85EC8093BC001092E1011D
:101690008091DF01803230F4E091DF01F0E0E1542D
:1016A000FE4F10826091DF0170E0E0910C02F0913A
:1016B0000D028FEB91E009951092DF010ACF109295
:1016C000E00134CF1F920F920FB60F9211242F9387
:1016D0003F934F935F936F937F938F939F93AF93BA
:1016E000BF93CF93DF93EF93FF9380915401C09109
:1016F000EA02D0E087FF24C0109285001092840097
:10170000809154018F5F8093540180915401082E81
:10171000000C990B8C179D0724F4809154018C3098
:10172000C4F18091840090918500049680349C4996
:1017300008F47AC08091840090918500049676C068
:1017400080915401082E000C990B8C179D07C4F64C
:10175000E09154018E2FEE0F990BFC01EE0FFF1F4D
:10176000E80FF91FEA53FD4F808186FFC9CFE09152
:1017700054018E2FEE0F990BFC01EE0FFF1FE80FA7
:10178000F91FEA53FD4F808160E08F730E9455027C
:10179000B7CF2091840030918500E09154018E2FC5
:1017A000EE0F990BFC01EE0FFF1FE80FF91FEA5334
:1017B000FD4F81819281820F931F909389008093C6
:1017C0008800E09154018E2FEE0F990BFC01EE0F73
:1017D000FF1FE80FF91FEA53FD4F808186FF11C0FC
:1017E000E09154018E2FEE0F990BFC01EE0FFF1FBD
:1017F000E80FF91FEA53FD4F808161E08F730E946B
:101800005502FF91EF91DF91CF91BF91AF919F91E1
:101810008F917F916F915F914F913F912F910F9099
:101820000FBE0F901F90189580E49CE9909389005B
:10183000809388008FEF80935401E3CF10922002B1
:1018400010921F0288EE93E0A0E0B0E080932102A6
:1018500090932202A0932302B09324022CE031E063
:1018600030931E0220931D0225EC30E030932A02B3
:101870002093290224EC30E030932C0220932B0299
:1018800020EC30E030932E0220932D0221EC30E04A
:101890003093300220932F0222EC30E0309332025A
:1018A0002093310226EC30E030933402209333024F
:1018B00010923602109237021092380210923902BA
:1018C0001092BD021092BC028093BE029093BF02A0
:1018D000A093C002B093C1028EE191E09093BB024D
:1018E0008093BA028091EA028C3008F059C091E0EE
:1018F000980F9093EA028093EF0290E0FC01EE0FC4
:10190000FF1FE80FF91FEA53FD4F88EB9BE092831E
:10191000818385E090E09093F3028093F20284E06B
:1019200090E09093F6028093F50283E090E090932C
:10193000F8028093F70287E090E09093FA02809398
:10194000F9028CE391E09093FC028093FB028AE021
:101950008093090389E080930A0310920E0310928A
:101960000D0380E391E090930C0380930B0387E2D7
:1019700080930F0380E18093140382E0809315032A
:10198000109216031092F40261E084E00E94830238
:1019900061E083E00E94830261E087E00C948302AF
:1019A0008FEF8093EF02B5CF789484B5826084BDC9
:1019B00084B5816084BD85B5826085BD85B5816053
:1019C00085BD80916E00816080936E0010928100D1
:1019D000809181008260809381008091810081608C
:1019E000809381008091800081608093800080914D
:1019F000B10084608093B1008091B00081608093D9
:101A0000B00080917A00846080937A0080917A009F
:101A1000826080937A0080917A00816080937A005E
:101A200080917A00806880937A001092C10061E012
:101A3000809109030E94830261E0809109030E9462
:101A4000550280910A038F3F09F4E4C160E00E94CF
:101A5000830280910A030E942C02892B09F0DAC1CB
:101A600061E080910A030E94830260E080910A0392
:101A70000E94550283E090E00197F1F761E08091C8
:101A80000A030E94550262E370E080E090E00E9449
:101A9000E40240E064E28BEF92E00E94520540E0F5
:101AA00066E28BEF92E00E94520546E268E48BEF1B
:101AB00092E00E94520540E864E58BEF92E00E94BC
:101AC000520549EA66E58BEF92E00E94520543E039
:101AD00068E58BEF92E00E94520548EE6AE58BEFD5
:101AE00092E00E94520540E46AE28BEF92E00E948D
:101AF00052054DE362E28BEF92E00E94520568E2EC
:101B00008BEF92E00E943405982F9370933039F058
:101B1000482F436068E28BEF92E00E945205CFB7F6
:101B2000F89480911402811127C0E8EBF0E08491D1
:101B3000E4EAF0E09491E82FF0E0EE0FFF1FE057A9
:101B4000FF4FA591B491EC91E92321F461E08AE083
:101B50000E94550261E08AE00E9483028CB5806198
:101B60008CBD8CB580648CBD61E08DE00E948302E9
:101B700061E08BE00E948302809114028F5F80936A
:101B80001402CFBFC091F2028091EF028C3008F0B6
:101B900051C061E08C2F0E948302E091EF028E2FF2
:101BA00090E0DC01AA0FBB1FA80FB91FAA53BD4FBD
:101BB000CF738C91807C8C2B8C931092F0021092BE
:101BC000F1022CE08E2F622F0E943610829FB0010E
:101BD000112430E020E0AB01420F531FDA01AA0FBD
:101BE000BB1FA40FB51FAA53BD4F9C9196FD16C0F5
:101BF0002F5F3F4F2C30310571F781110FC01092CC
:101C0000800082E080938100109285001092840011
:101C1000B19A80916F00826080936F008E2F90E068
:101C2000FC01EE0FFF1FE80FF91FEA53FD4F808103
:101C30008064808390E080E00E948F001092130205
:101C40001092120210921102109210020E943D0393
:101C500084ED91E090930F0280930E0285ED91E068
:101C600090930D0280930C02109210038091150343
:101C7000823018F098E0909310038093130362E38E
:101C800070E080E090E00E94E402609116038BE037
:101C900093E00E94020468EE73E080E090E00E940E
:101CA000E40260E38BE093E00E943109CBE4D6E4E8
:101CB000CE010197F1F760E38BE093E00E943109D8
:101CC0002197F1F760E38BE093E00E94310983E50F
:101CD00092E00197F1F760E28BE093E00E94310916
:101CE00060911003606240E08BE093E00E944A093B
:101CF00084E08093110340E06CE08BE093E00E946D
:101D00004A098BE093E00E94920982E080931203DB
:101D100040E066E08BE093E00E944A0940E062E028
:101D20008BE093E00E944A098BE39FE10197F1F772
:101D300088E08093160360E08BE093E00E94020449
:101D40001092F40262E086E00E94830280E0E82EB6
:101D500080E0F82E86E00E942C02EC01892B09F02D
:101D600070C08BEF92E00E9403078823D1F38BEFC2
:101D700092E00E94ED048823A1F361E08091F902D2
:101D80000E94550261E08091F5020E94550261E0D7
:101D90008091F7020E9455020EEF12E0F801619166
:101DA0008F01CE010E94C50F2196C430D105B1F735
:101DB00064E670E080E090E00E94E40260E08091E0
:101DC000F9020E94550260E08091F5020E945502DE
:101DD00060E08091F7020E94550280E00E94610954
:101DE00082E491E00E94EC0868E873E180E090E012
:101DF0000E94E4028BE093E00E949209E114F10456
:101E000009F4A8CF0E94C001882309F4A3CF0E943F
:101E10000000A0CF4FE062E08BEF92E00E945205FD
:101E2000C3E062E370E080E090E00E94E40262E0E0
:101E30008BEF92E00E94340584FF2BCEC15089F7CE
:101E400028CE05E112E0D0E0C0E0CE010E94BD0F37
:101E5000F80181938F012196C430D105B1F78BEF42
:101E600092E00E940307882309F480C08BEF92E080
:101E70000E94ED04882309F479C0909115028091A5
:101E8000FE02981312C09091FF02809116029813DF
:101E90000CC09091170280910003981306C0909196
:101EA000180280910103981711F161E08091F90205
:101EB0000E94550261E08091F7020E94550281E084
:101EC0000E94610988E491E00E94EC0860ED77E0EF
:101ED00080E090E00E94E40260E08091F9020E94BC
:101EE000550260E08091F7020E94550283CF8091F5
:101EF000F40291E089278093F402882309F47ECFCD
:101F000061E08091F9020E94550261E08091F50242
:101F10000E94550280E00E9461098EE491E00E94D7
:101F2000EC0864E670E080E090E00E94E40260E08B
:101F30008091F9020E94550260E08091F5020E94B2
:101F4000550284EB90E00E948F0068E873E180E026
:101F500090E00E94E40290E080E00E948F008BE01D
:101F600093E00E9492091092F40248CF64EF71E06E
:101F700080E090E00E94E40241CFF999FECF92BD4B
:101F800081BDF89A992780B50895262FF999FECF3B
:101F90001FBA92BD81BD20BD0FB6F894FA9AF99A86
:101FA0000FBE01960895052E97FB1EF400940E9423
:101FB000EA0F57FD07D00E94051007FC03D04EF42E
:101FC0000C94EA0F50954095309521953F4F4F4F17
:101FD0005F4F089590958095709561957F4F8F4FD5
:101FE0009F4F08950E942710A59F900DB49F900DBC
:101FF000A49F800D911D11240895B7FF0C94F20F3A
:102000000E94F20F821B930B0895A1E21A2EAA1BC5
:10201000BB1BFD010DC0AA1FBB1FEE1FFF1FA21798
:10202000B307E407F50720F0A21BB30BE40BF50B95
:10203000661F771F881F991F1A9469F7609570951E
:10204000809590959B01AC01BD01CF010895A29FA1
:10205000B001B39FC001A39F700D811D1124911D7C
:10206000B29F700D811D1124911D0895991B79E077
:1020700004C0991F961708F0961B881F7A95C9F718
:1020800080950895EE0FFF1F0590F491E02D0994BF
:04209000F894FFCFF2
:102094000000400014005400000000005301D60169
:1020A400F400A00125010301170100000000D3037F
:1020B400A603EA047C039F038C037D030000000055
:1020C4009B09D601EA04E90400000000660703073F
:1020D400ED04575249544500434C4F5345004F506B
:0420E400454E000065
:00000001FF
