:020000040000FA
:100000000C9462000C948A000C948A000C948A0070
:100010000C948A000C948A000C948A000C948A0038
:100020000C948A000C948A000C948A000C94570B50
:100030000C948A000C948A000C948A000C948A0018
:100040000C94EE090C948A000C94BC090C9496094B
:100050000C948A000C948A000C948A000C948A00F8
:100060000C94380A0C948A00000000002500280037
:100070002B000000000023002600290000000008DB
:10008000000201000003040700000000000000005F
:1000900000000000240027002A00010204081020AC
:1000A000408001020408102001020408102004040A
:1000B0000404040404040202020202020303030310
:1000C0000303130C11241FBECFEFD8E0DEBFCDBF5A
:1000D00011E0A0E0B1E0EAEAF0E202C005900D9282
:1000E000A235B107D9F723E0A2E5B1E001C01D9226
:1000F000A231B207E1F710E0C2E6D0E004C02197D8
:10010000FE010E944D10C136D107C9F70E94C90CEB
:100110000C9453100C9400008F929F92AF92BF9258
:10012000FF920F931F93CF93DF93F090F2022BE097
:100130002F1508F44CC02091F40208E512E0021BD0
:10014000110927FD1395000F111F000F111F20919A
:10015000F302C8E8D0E0C21BD10927FDD395CC0F2C
:10016000DD1FCC0FDD1F4E010D2E000CAA08BB08B1
:100170009801012E000C440B550B281939094A0926
:100180005B09DC010E94081024EB30E040E050E005
:100190000E94DE0F820E931EA41EB51E8C169D06B5
:1001A0002CF0E801801691060CF4E4012297CC0FA4
:1001B000DD1F2FB7F8948F2D90E0FC01EE0FFF1F8D
:1001C000E80FF91FEF53FD4FD283C1832FBFDF919B
:1001D000CF911F910F91FF90BF90AF909F908F9004
:1001E00008958CBD9DBD089508950895AF92BF9266
:1001F000CF92DF92EF92FF920F931F93CF93DF93F3
:100200006C017B018B01040F151FEB015E01AE1821
:10021000BF08C017D10759F06991D601ED91FC9143
:100220000190F081E02DC6010995892B79F7C50170
:10023000DF91CF911F910F91FF90EF90DF90CF90C2
:10024000BF90AF900895FC01538D448D252F30E071
:10025000842F90E0821B930B541710F0CF960895D3
:1002600001970895FC01918D828D981761F0A28D00
:10027000AE0FBF2FB11D5D968C91928D9F5F9F73C6
:10028000928F90E008958FEF9FEF0895FC01918D7C
:10029000828D981731F0828DE80FF11D858D90E0E9
:1002A00008958FEF9FEF0895FC01918D228D892F86
:1002B00090E0805C9F4F821B91098F73992708956E
:1002C00088E192E00E94540121E0892B09F420E0AA
:1002D000822F089580E090E0892B29F00E94600130
:1002E00081110C9400000895FC01A48DA80FB92F72
:1002F000B11DA35ABF4F2C91848D90E001968F734E
:100300009927848FA689B7892C93A089B1898C916C
:10031000837080648C93938D848D981306C00288BB
:10032000F389E02D80818F7D80830895EF92FF9285
:100330000F931F93CF93DF93EC0181E0888F9B8D08
:100340008C8D98131AC0E889F989808185FF15C0C2
:100350009FB7F894EE89FF896083E889F9898081E5
:100360008370806480839FBF81E090E0DF91CF91B4
:100370001F910F91FF90EF900895F62E0B8D10E0D6
:100380000F5F1F4F0F731127E02E8C8D8E110CC045
:100390000FB607FCFACFE889F989808185FFF5CF90
:1003A000CE010E947401F1CFEB8DEC0FFD2FF11DFA
:1003B000E35AFF4FF0829FB7F8940B8FEA89FB89CD
:1003C00080818062CFCFCF93DF93EC01888D88232B
:1003D000B9F0AA89BB89E889F9898C9185FD03C0A8
:1003E000808186FD0DC00FB607FCF7CF8C9185FF8D
:1003F000F2CF808185FFEDCFCE010E947401E9CF5D
:10040000DF91CF910895833081F028F4813099F005
:100410008230A9F008958730A9F08830C9F084307F
:10042000B1F4809180008F7D03C0809180008F7730
:1004300080938000089584B58F7784BD089584B536
:100440008F7DFBCF8091B0008F778093B0000895AF
:100450008091B0008F7DF9CFCF93DF93282F30E0CC
:10046000F901E458FF4F8491F901E656FF4FD4910A
:10047000F901E255FF4FC491CC23A1F081110E94F4
:100480000302EC2FF0E0EE0FFF1FEE58FF4FA59197
:10049000B491EC91ED2381E090E009F480E0DF91EC
:1004A000CF91089580E090E0FACF1F93CF93DF9330
:1004B000282F30E0F901E458FF4F8491F901E65606
:1004C000FF4FD491F901E255FF4FC491CC23A9F01D
:1004D000162F81110E940302EC2FF0E0EE0FFF1F98
:1004E000E859FF4FA591B4918FB7F894EC91111191
:1004F00008C0D095DE23DC938FBFDF91CF911F9191
:100500000895DE2BF8CFCF93DF9390E0FC01E65601
:10051000FF4F249182559F4FFC0184918823C9F09D
:1005200090E0880F991FFC01E057FF4FA591B4910F
:10053000FC01E859FF4FC591D49161110DC09FB7DF
:10054000F8948C91209582238C938881282328838A
:100550009FBFDF91CF910895623051F49FB7F89417
:100560003C91822F809583238C93E8812E2BEFCFB3
:100570008FB7F894EC912E2B2C938FBFEACF3FB717
:10058000F8948091060290910702A0910802B09120
:10059000090226B5A89B05C02F3F19F00196A11DA1
:1005A000B11D3FBFBA2FA92F982F8827BC01CD01BD
:1005B000620F711D811D911D42E0660F771F881F1C
:1005C000991F4A95D1F708958F929F92AF92BF924B
:1005D000CF92DF92EF92FF924B015C010E94BF022B
:1005E0006B017C010E94BF026C197D098E099F0975
:1005F000683E734081059105A8F321E0821A9108B5
:10060000A108B10888EEC80E83E0D81EE11CF11CD9
:1006100081149104A104B10429F7FF90EF90DF90B9
:10062000CF90BF90AF909F908F9008952091BB0185
:10063000260F3327331F21323105ECF42091DF01DF
:10064000FC0190E080E0243069F082E00895A09100
:10065000BB012191AC0145565E4FA40FB52FB11DD2
:100660002C930196861798F38091BB01680F6093D5
:10067000BB0180E0089581E008951092DF0181E0E0
:100680008093E1011092E00161E082E10E94550255
:1006900061E083E10E945502E9EBF0E080818E7F0A
:1006A000808380818D7F808388E48093B80085E497
:1006B0008093BC000895CF93DF9391E090939A01CB
:1006C0008823B9F0C091B800D091BA008091BC00E5
:1006D0008A7B8093BC0060E082E10E94550260E06A
:1006E00083E10E9455020E943D03D093BA00C0935B
:1006F000B800DF91CF9108950895E09111028091A3
:100700001002E81730F4F0E0EB58FE4F808190E0E3
:1007100008958FEF9FEF089590911102809110023C
:100720002FEF3FEF981748F4E92FF0E0EB58FE4F1A
:10073000208130E09F5F90931102C901089580915C
:10074000100290911102891B990B0895CF92DF92AC
:10075000EF92FF920F931F93CF93DF937C01CB0116
:100760008A0120917401222389F0EB016B01C40EF0
:10077000D51ECC15DD0569F06991D701ED91FC918D
:100780000190F081E02DC7010995F3CF642F0E94FD
:100790001603C801DF91CF911F910F91FF90EF9049
:1007A000DF90CF900895CF93DF931F92CDB7DEB740
:1007B0006983209174012223F9F020910E022032E6
:1007C00058F021E030E0FC013383228390E080E0A8
:1007D0000F90DF91CF91089580910F02E82FF0E004
:1007E000EC5AFE4F998190838F5F80930F02809324
:1007F0000E0281E090E0ECCF61E0CE0101960E9414
:100800001603F7CFCF92DF92EF92FF920F931F93D1
:10081000CF93DF93FC01C48121E020937401C09346
:10082000530110920F0210920E028385682B85EB04
:1008300092E00E94D303D0910E02D13208F092C010
:100840000E94BF026B017C018091DF01811165C0B4
:1008500082E08093DF0181E08093E1018FEF80935C
:10086000DE0110920302D0930202A4E5B1E0E2EEB1
:10087000F1E080E0D81385C0109204028091040258
:10088000CC0FC82BC09304028091E001813009F0A5
:100890007CC01092E0010E94BF026B017C0180913C
:1008A00004028093BB008091960190919701A091E2
:1008B0009801B0919901892B8A2B8B2B99F00E947A
:1008C000BF020091960110919701209198013091FB
:1008D00099016C197D098E099F09061717072807CA
:1008E0003907E0F18091BC0083FDD9CF85EC80937E
:1008F000BC000E94BF026B017C018091DF0182304D
:1009000009F445C08091DE018F3F61F18091DE01E5
:10091000803241F18091DE0125C080919601909155
:100920009701A0919801B0919901892B8A2B8B2B6B
:1009300009F48ACF0E94BF0200919601109197019D
:1009400020919801309199016C197D098E099F09B8
:10095000061717072807390708F076CF8091950109
:100960000E945B0310920F0210920E02109274010B
:10097000DF91CF911F910F91FF90EF90DF90CF907B
:1009800008959D9191938F5F75CF85EEB0CF809143
:10099000960190919701A0919801B0919901892BAE
:1009A0008A2B8B2B09F4A9CF0E94BF0200919601DC
:1009B0001091970120919801309199016C197D094E
:1009C0008E099F09061717072807390708F095CFE2
:1009D000C5CF089590E080E00895BC016E5F7F4F21
:1009E000DC01ED91FC910190F081E02D40E0099552
:1009F00091E0811190E0892F089508958EBD000047
:100A00000DB407FEFDCF8EB50895DF92EF92FF92F1
:100A10000F931F93CF93DF937C01062FD42E152FB6
:100A200080E590E00E94F10060E0F70186850E9479
:100A3000550282E10E94FE04CD2DD12F0C0F1D2FF7
:100A4000111DC017D10721F089910E94FE04F9CF32
:100A500061E0F7018685DF91CF911F910F91FF90A3
:100A6000EF90DF900C9455021F93CF93DF93EC012E
:100A7000162F80E590E00E94F10060E08E850E94D4
:100A80005502812F80680E94FE0480E00E94FE04CF
:100A9000182F61E08E850E945502812FDF91CF9142
:100AA0001F9108950F931F93CF93DF93EC01062FAF
:100AB000142F80E590E00E94F10060E08E850E9496
:100AC0005502802F0E94FE04812F0E94FE0461E0E7
:100AD0008E85DF91CF911F910F910C945502CF928B
:100AE000DF92EF92FF920F931F93CF93DF93EC016E
:100AF0006B01F42E890140E062E00E94520544E05F
:100B00006AE0CE010E94520540E864E1CE010E94F5
:100B10005205A6016F2DCE010E94050543E062E05B
:100B2000CE010E9452058FB7F894C0901402D09065
:100B30001502E0901602F09017028FBF89E5C80EEB
:100B4000D11CE11CF11C6AE0CE010E94340582FF39
:100B50001BC040E062E0CE010E94520564E4CE0179
:100B60000E943405F801808362E4CE010E943405BE
:100B7000F801818380E0DF91CF911F910F91FF9069
:100B8000EF90DF90CF9008952FB7F89480911402E2
:100B900090911502A0911602B09117022FBF8C15EB
:100BA0009D05AE05BF0578F283E0E5CF2F923F9219
:100BB0004F925F926F927F928F929F92AF92CF925D
:100BC000DF92EF92FF920F931F93CF93DF9300D0AA
:100BD000CDB7DEB74C012B01D42E390180E0E114F2
:100BE000F10411F0F70180813C2C329490EF39220E
:100BF000380E40E062E0C4010E9452054FE768E011
:100C0000C4010E94520540E864E1C4010E945205FB
:100C1000A2016D2DC4010E940505432D6AE1C401A6
:100C20000E9452054CE062E0C4010E9452056AE154
:100C3000C4010E943405482F40686AE1C4010E9443
:100C400052058FB7F894209014023090150240900E
:100C50001602509017028FBFF4E22F0E311C411C78
:100C6000511C68E0C4010E943405982F907309F06C
:100C7000C0C080FF15C083E00F900F90DF91CF912F
:100C80001F910F91FF90EF90DF90CF90AF909F90CA
:100C90008F907F906F905F904F903F902F9008952E
:100CA0002FB7F8948091140290911502A09116022A
:100CB000B09117022FBF82159305A405B50588F2E0
:100CC000DACF6114710409F469C00115110509F442
:100CD00065C064E1C4010E943405382EF8018081AA
:100CE000831508F480C030823320E1F180E590E084
:100CF0000E94F10060E0F40186850E9455023A945A
:100D000082E90E94FE04CC20B1F08FEF90E09C01BC
:100D100002C0220F331FCA94E2F7690182E90E94E0
:100D2000FE049C2D9095F301208192238C21982B19
:100D30009083CC24C39423014C0C511CC31440F465
:100D400082E90E94FE04F20181932F01C394F6CF41
:100D500080E00E94FE04F201808361E0F401868558
:100D60000E94550268E1C4010E9434058770E114B5
:100D7000F10411F0F701808323FC37C06114710482
:100D8000B1F10115110599F1AA2089F1F80140810D
:100D9000413031F4843029F58FEF6ECF80E0ECCF15
:100DA0004230F8F081111DC042509E012F5F3F4F2D
:100DB000B301C4010E946F0581115ECFF8019081DB
:100DC000690E711CF301329720819981291309C0A2
:100DD000F1E06F1A7108F30120819A81291709F453
:100DE0004BCF87E049CF84E047CF82E045CF80E01A
:100DF00043CF6CE0C4010E943405282E837109F4AE
:100E000060CF81E039CF8F929F92AF92CF92EF92D5
:100E1000FF920F931F93CF93DF9300D000D01F92C8
:100E2000CDB7DEB74C0182E08D8340E064E2C401BF
:100E30000E94520540E066E2C4010E94520546E26B
:100E400068E4C4010E94520586E28B838D81823062
:100E5000D8F16CE1C4010E943405482F4F776CE152
:100E6000C4010E94520587E08C83A12CC12CCE01C5
:100E700004967C018E010B5F1F4F9E012F5F3F4F39
:100E800041E0BE016D5F7F4FC4010E94D605982FDF
:100E9000811117C08D818230B9F48C81811114C009
:100EA00081E00F900F900F900F900F90DF91CF91F6
:100EB0001F910F91FF90EF90CF90AF909F908F90E8
:100EC000089581E0923069F380E0EBCF2F923F925A
:100ED0004F925F926F927F928F929F92AF92BF924A
:100EE000CF92DF92EF92FF920F931F93CF93DF93F6
:100EF000CDB7DEB72D970FB6F894DEBF0FBECDBFCE
:100F000016E0413508F04AC1342E3B014C016CE13A
:100F10000E943405482F4F776CE1C4010E945205AE
:100F200083E98983332029F081E0F30190819530B2
:100F300008F480E022242394B12C9B2D990F990F63
:100F4000990FD32CD91AD7FCD12C32E0882319F071
:100F500098E89B8333E021E09D2D977009F420E011
:100F60009D2D959595959595290FC9F094E0811142
:100F700093E0291708F4922FEB2DF0E03196E60D5F
:100F8000F71D232F4191A1E0B0E0AC0FBD1FA20FD0
:100F9000B11D4C932F5F422F431B491798F38823B1
:100FA00011F0F8E0DF0E8FE18D150CF082C090E7B4
:100FB0009A838B819C8189279D8189279E8189279E
:100FC0008F839E01285F3F4F47E0BE016F5F7F4FD9
:100FD000C4010E946F05182F8111E0C01A86E3E05A
:100FE000EB87DC86CE0107962C0199E09D87CA84A9
:100FF0004C2D4295407F4C0D6AE1C4010E94520580
:10100000A12CCE010A967C018E01055F1F4F920133
:101010004D85BE016F5F7F4FC4010E94D605182F1A
:10102000823009F065C06CE1C4010E94340585FD81
:10103000B5C08F7109F480E2282F30E04D2DDD0C12
:10104000550B421753070CF09DC0D82EE82FE5959D
:10105000E595E595EF5F982F977081E009F480E0C2
:10106000E80F81E090E08C0F9D1F8E0F911DFC0119
:10107000215031092770332781E090E002C0880FAA
:10108000991F2A95E2F79C018081822B80838BCF68
:1010900085E98983332031F081E0F3019081983034
:1010A00008F04BCF80E049CF87E9898326E0B22E54
:1010B000F9CF9D2D97709A878D2D8595859585956E
:1010C0008E5F282F2295207F290F2A8321E09111FE
:1010D00001C020E0280F2D8744244394512C4C0E4E
:1010E0005D1E480E511CE9E0E81BEB87DC867FCFD4
:1010F000811154C080E2D82E9C8590320CF457CFD9
:101100008B81883809F040C083E093E0EB2DF0E05C
:101110003196E60DF71D980FA1E0B0E0AC0FBD1FB2
:10112000A80FB11D2C9121938F5F8913F5CFBB843C
:10113000E3E0BE124DC08A8581114AC09E012D5F39
:101140003F4F41E0B201C4010E946F05182F811189
:1011500025C09B81F201818198133CC09C818281D2
:10116000981338C0808182FF12C02394F2E02F16BA
:1011700009F48ECF83E0281609F496CF91E0291662
:1011800009F4CECE15E00AC082E094E0BFCFF301AF
:101190008387822D880F820D8F5F8083812F2D960C
:1011A0000FB6F894DEBF0FBECDBFDF91CF911F9178
:1011B0000F91FF90EF90DF90CF90BF90AF909F90F6
:1011C0008F907F906F905F904F903F902F900895F9
:1011D00011E0E4CF17E0E2CF85ED8093BC00809171
:1011E000960190919701A0919801B091990107966D
:1011F000A11DB11D23E0B695A795979587952A95D2
:10120000D1F72091BC0024FD03C01092DF010895A6
:1012100040919601509197016091980170919901C8
:10122000452B462B472B69F30097A105B10541F0EB
:1012300025E32A95F1F700000197A109B109E1CF53
:10124000809195010C945B030F931F93CF938C01B6
:10125000C62F0E9402046C2F6460C8010E94020421
:101260006C2F6B7FC8010E94020483EC90E0019711
:10127000F1F7CF911F910F9108950F931F93CF9383
:10128000DF938C01D62FC42F607F642B0E9424092A
:1012900080E1D89FB00111246C2BC801DF91CF9160
:1012A0001F910F910C942409CF93DF93CDB7DEB734
:1012B00028970FB6F894DEBF0FBECDBF98E0E4E0EC
:1012C000F1E0DE01119601900D929A95E1F790916F
:1012D000EE02981708F48FEF90E0880F991F21E035
:1012E00030E02C0F3D1F820F931FFC01608160686E
:1012F00040E086EE92E028960FB6F894DEBF0FBE6F
:10130000CDBFDF91CF910C943D0940E061E086EEC6
:1013100092E00E943D098BE39FE10197F1F7089568
:1013200041E00E943D0981E090E008951F920F92F4
:101330000FB60F9211242F933F934F935F936F93A8
:101340007F938F939F93AF93BF93EF93FF9388E126
:1013500092E00E947401FF91EF91BF91AF919F9134
:101360008F917F916F915F914F913F912F910F904E
:101370000FBE0F901F9018951F920F920FB60F92ED
:1013800011242F938F939F93EF93FF93E091280263
:10139000F09129028081E0912E02F0912F0282FDCE
:1013A0001BC09081809131028F5F8F732091320238
:1013B000821741F0E0913102F0E0E85EFD4F958F39
:1013C00080933102FF91EF919F918F912F910F9018
:1013D0000FBE0F901F9018958081F4CF1F920F922F
:1013E0000FB60F9211242F933F938F939F93AF9338
:1013F000BF938091140290911502A0911602B091B2
:1014000017023091050223E0230F2D3758F501967E
:10141000A11DB11D20930502809314029093150223
:10142000A0931602B09317028091060290910702D2
:10143000A0910802B09109020196A11DB11D8093EF
:10144000060290930702A0930802B0930902BF918D
:10145000AF919F918F913F912F910F900FBE0F9061
:101460001F90189526E8230F0296A11DB11DD2CF1B
:101470001F920F920FB60F9211242F933F934F9309
:101480005F936F937F938F939F93AF93BF93EF93EC
:10149000FF938091B900887F803609F44AC0F0F547
:1014A000883209F4A7C018F5803109F49BC0B8F45C
:1014B000882309F4F9C0883009F494C0FF91EF91B2
:1014C000BF91AF919F918F917F916F915F914F915C
:1014D0003F912F910F900FBE0F901F90189588315C
:1014E00009F488C0803251F78093DE0114C0803443
:1014F00009F49DC040F48033B9F38833F9F6809342
:10150000DE0185ECB0C0803509F485C0883509F46A
:1015100096C0883499F60E94EC08D0CF883909F437
:101520008CC038F5883729F050F4883611F08037B0
:1015300029F683E08093DF011092DD0157C08838DF
:1015400009F47BC0803919F0803809F0B7CF809159
:10155000DD01803208F071C0E091DD0181E08E0F85
:101560008093DD018091BB00F0E0E354FE4F808367
:101570003DC0803B39F0E0F4803A09F479C0883A04
:1015800009F09CCF84E08093DF011092BC0110929F
:10159000BB01E0910C02F0910D0209958091BB0115
:1015A00081110FC081E08093BB0110929B0109C0A3
:1015B000803C09F4A6CF883C09F4A3CF883B09F00E
:1015C0007DCFE091BC0181E08E0F8093BC01F0E003
:1015D000E556FE4F80818093BB009091BC018091C5
:1015E000BB0129C0809104028093BB0085EC8093ED
:1015F000BC0064CF9091030280910202981758F5C5
:10160000E091030281E08E0F80930302F0E0EE513F
:10161000FE4F8081E9CFE091030281E08E0F80933D
:1016200003028091BB00F0E0EE51FE4F8083909169
:101630000302809102029817C8F285E8D8CFE091A2
:10164000030281E08E0F809303028091BB00F0E0E3
:10165000EE51FE4F80838091E10181115CCF81E0EA
:101660008093E00184EA8093BC001092DF0126CFD2
:1016700085EC8093BC001092DF018091DD01803207
:1016800030F4E091DD01F0E0E354FE4F1082609110
:10169000DD0170E0E0910A02F0910B028DEB91E028
:1016A00009951092DD010ACF1092DE0134CF1F920E
:1016B0000F920FB60F9211242F933F934F935F9386
:1016C0006F937F938F939F93AF93BF93CF93DF934A
:1016D000EF93FF9380915201C091E502D0E087FF24
:1016E00024C01092850010928400809152018F5F77
:1016F0008093520180915201082E000C990B8C1797
:101700009D0724F4809152018C30C4F180918400B3
:1017100090918500049680349C4908F47AC08091A9
:10172000840090918500049676C080915201082E25
:10173000000C990B8C179D07C4F6E09152018E2F77
:10174000EE0F990BFC01EE0FFF1FE80FF91FEF538F
:10175000FD4F808186FFC9CFE09152018E2FEE0FA1
:10176000990BFC01EE0FFF1FE80FF91FEF53FD4F20
:10177000808160E08F730E945502B7CF2091840072
:1017800030918500E09152018E2FEE0F990BFC01F4
:10179000EE0FFF1FE80FF91FEF53FD4F818192817C
:1017A000820F931F9093890080938800E0915201EB
:1017B0008E2FEE0F990BFC01EE0FFF1FE80FF91FA4
:1017C000EF53FD4F808186FF11C0E09152018E2FB3
:1017D000EE0F990BFC01EE0FFF1FE80FF91FEF53FF
:1017E000FD4F808161E08F730E945502FF91EF9160
:1017F000DF91CF91BF91AF919F918F917F916F9129
:101800005F914F913F912F910F900FBE0F901F90BE
:10181000189580E49CE990938900809388008FEF6D
:1018200080935201E3CF10921B0210921A0288EEAD
:1018300093E0A0E0B0E080931C0290931D02A0937F
:101840001E02B0931F0220E131E030931902209371
:10185000180225EC30E0309325022093240224EC7A
:1018600030E0309327022093260220EC30E03093C2
:1018700029022093280221EC30E030932B022093A0
:101880002A0222EC30E030932D0220932C0226EC29
:1018900030E030932F0220932E02109231021092EA
:1018A000320210923302109234021092B802109257
:1018B000B7028093B9029093BA02A093BB02B0938F
:1018C000BC0282E291E09093B6028093B50210923E
:1018D000E9021092E8028EE391E09093E702809390
:1018E000E60287E28093EA0280E18093EF0282E0E1
:1018F0008093F0021092F1028091E5028C3008F0A2
:1019000044C091E0980F9093E5028093F20290E03A
:10191000FC01EE0FFF1FE80FF91FEF53FD4F88EB9F
:101920009BE09283818385E090E09093FA0280931C
:10193000F90284E090E09093FC028093FB0283E044
:1019400090E09093FE028093FD0287E090E09093F8
:1019500000038093FF0284E391E09093030380935C
:1019600002038AE08093100389E0809311031092B0
:10197000010361E084E00E94830261E083E00E9451
:10198000830261E087E00C9483028FEF8093F20280
:10199000CACF789484B5826084BD84B5816084BDEB
:1019A00085B5826085BD85B5816085BD80916E00FD
:1019B000816080936E00109281008091810082602E
:1019C000809381008091810081608093810080916B
:1019D00080008160809380008091B100846080935A
:1019E000B1008091B00081608093B00080917A0056
:1019F000846080937A0080917A00826080937A007C
:101A000080917A00816080937A0080917A0080686A
:101A100080937A001092C10061E0809110030E94CF
:101A2000830261E0809110030E94550280911103AE
:101A30008F3F09F458C260E00E9483028091110335
:101A40000E942C02892B09F04EC261E080911103A3
:101A50000E94830260E0809111030E94550283E09E
:101A600090E00197F1F761E0809111030E94550227
:101A700062E370E080E090E00E94E40240E064E213
:101A800082E093E00E94520540E066E282E093E04B
:101A90000E94520546E268E482E093E00E9452050B
:101AA00040E864E582E093E00E94520549EA66E579
:101AB00082E093E00E94520543E068E582E093E013
:101AC0000E94520548EE6AE582E093E00E945205CA
:101AD00040E46AE282E093E00E9452054DE362E254
:101AE00082E093E00E94520568E282E093E00E9467
:101AF0003405982F9370933039F0482F436068E293
:101B000082E093E00E945205CFB7F89480911202D0
:101B1000811127C0E8EBF0E08491E4EAF0E09491D1
:101B2000E82FF0E0EE0FFF1FE057FF4FA591B491B3
:101B3000EC91E92321F461E08AE00E94550261E022
:101B40008AE00E9483028CB580618CBD8CB5806474
:101B50008CBD61E08DE00E94830261E08BE00E9419
:101B60008302809112028F5F80931202CFBF809117
:101B7000F2028C3008F053C0C091F90261E08C2F62
:101B80000E948302E091F2028E2F90E0DC01AA0F06
:101B9000BB1FA80FB91FAF53BD4FCF738C91807C73
:101BA0008C2B8C931092F3021092F4022CE08E2F67
:101BB000622F0E944110829FB001112430E020E08A
:101BC000AB01420F531FDA01AA0FBB1FA40FB51FB1
:101BD000AF53BD4F9C9196FD16C02F5F3F4F2C30E9
:101BE000310571F781110FC01092800082E080935F
:101BF00081001092850010928400B19A80916F004C
:101C0000826080936F008E2F90E0FC01EE0FFF1F2B
:101C1000E80FF91FEF53FD4F80818064808390E0CF
:101C200080E00E948C00109211021092100210921B
:101C30000F0210920E020E943D0384EF90E09093F9
:101C40000D0280930C0285EF90E090930B0280933D
:101C50000A021092EB028091F002823018F098E0B4
:101C60009093EB028093EE0262E370E080E090E0FC
:101C70000E94E4026091F10286EE92E00E9402046A
:101C800068EE73E080E090E00E94E40260E386EE9C
:101C900092E00E942409CBE4D6E4CE010197F1F74B
:101CA00060E386EE92E00E9424092197F1F760E359
:101CB00086EE92E00E94240983E592E00197F1F715
:101CC00060E286EE92E00E9424096091EB0260627D
:101CD00040E086EE92E00E943D0984E08093EC02B1
:101CE00040E06CE086EE92E00E943D090E9485098A
:101CF000C2E0C093ED0240E066E086EE92E00E9412
:101D00003D0940E062E086EE92E00E943D098BE3EF
:101D10009FE10197F1F788E08093F10260E086EEA1
:101D200092E00E94020462E086E00E948302E09159
:101D30002802F0912902C083E0912402F09125024B
:101D40001082E0912602F091270280E180831092B8
:101D50003002E0912C02F0912D0286E08083E09128
:101D60002A02F0912B02808180618083E0912A0217
:101D7000F0912B02808188608083E0912A02F091AB
:101D80002B02808180688083E0912A02F0912B02EF
:101D900080818F7D8083DD24D39480E0E82E80E0F5
:101DA000F82E86E00E942C02EC0181E0209709F0D9
:101DB00080E0809313022097C1F561E08091FB02DF
:101DC0000E94550261E08091FD020E94550261E08F
:101DD0008091FF020E94550205E013E0F801619135
:101DE0008F01CE010E94D00F2196C430D105B1F7EA
:101DF00064E670E080E090E00E94E40260E08091A0
:101E0000FF020E94550268E873E180E090E00E94C2
:101E1000E4021092130260E08091FB020E945502DE
:101E200060E08091FD020E945502809113028111B1
:101E30004EC082E093E00E940307882309F4A9C002
:101E400082E093E00E94ED04882309F4A2C09091FF
:101E5000000180910503981313C0909106038091AF
:101E6000010198130DC0909102018091070398130E
:101E700007C09091030180910803981709F44AC0A4
:101E800061E08091FF020E94550261E08091FD02B5
:101E90000E94550281E00E94540945E050E066E44A
:101EA00071E086EE92E00E94F60060ED77E080E05F
:101EB00090E00E94E40260E08091FF020E945502DF
:101EC00060E08091FD020E9455020E948509E114A4
:101ED000F10409F466CF0E946001882309F461CF00
:101EE0000E9400005ECF4FE062E082E093E00E943B
:101EF0005205C3E062E370E080E090E00E94E402FB
:101F000062E082E093E00E94340584FFB7CDC150C7
:101F100089F7B4CD809101038D2580930103882337
:101F2000B1F261E08091FF020E94550261E0809170
:101F3000FB020E94550280E00E94540944E050E0F8
:101F40006CE471E086EE92E00E94F60064E670E0D8
:101F500080E090E00E94E40260E08091FF020E9435
:101F6000550260E08091FB020E94550284EB90E0F4
:101F70000E948C0068E873E180E090E00E94E40237
:101F800090E080E00E948C000E948509109201037D
:101F90009ECF64EF71E080E090E00E94E40297CF72
:101FA000262FF999FECF1FBA92BD81BD20BD0FB675
:101FB000F894FA9AF99A0FBE01960895052E97FBA8
:101FC0001EF400940E94F50F57FD07D00E941010D8
:101FD00007FC03D04EF40C94F50F509540953095C6
:101FE00021953F4F4F4F5F4F089590958095709585
:101FF00061957F4F8F4F9F4F08950E943210A59F8C
:10200000900DB49F900DA49F800D911D11240895F3
:10201000B7FF0C94FD0F0E94FD0F821B930B0895D8
:10202000A1E21A2EAA1BBB1BFD010DC0AA1FBB1FDC
:10203000EE1FFF1FA217B307E407F50720F0A21B4E
:10204000B30BE40BF50B661F771F881F991F1A94BB
:1020500069F760957095809590959B01AC01BD01E5
:10206000CF010895A29FB001B39FC001A39F700D3F
:10207000811D1124911DB29F700D811D1124911D90
:102080000895991B79E004C0991F961708F0961BD4
:10209000881F7A95C9F780950895EE0FFF1F059068
:1020A000F491E02D0994F894FFCF31B5B91A0000EE
:1020B000400014005400000000009601F6002301C7
:1020C000E30154013201460100000000D303A603DE
:1020D000EA047C039F038C037D0300000000660775
:1020E0000307ED04000000009009F600EA04E9048B
:0C20F000434C4F5345004F50454E00003C
:107E0000112484B714BE81FFF0D085E080938100F7
:107E100082E08093C00088E18093C10086E0809377
:107E2000C20080E18093C4008EE0C9D0259A86E02C
:107E300020E33CEF91E0309385002093840096BBD3
:107E4000B09BFECF1D9AA8958150A9F7CC24DD24C4
:107E500088248394B5E0AB2EA1E19A2EF3E0BF2EE7
:107E6000A2D0813461F49FD0082FAFD0023811F036
:107E7000013811F484E001C083E08DD089C08234E0
:107E800011F484E103C0853419F485E0A6D080C0E4
:107E9000853579F488D0E82EFF2485D0082F10E0AE
:107EA000102F00270E291F29000F111F8ED06801E7
:107EB0006FC0863521F484E090D080E0DECF843638
:107EC00009F040C070D06FD0082F6DD080E0C81688
:107ED00080E7D80618F4F601B7BEE895C0E0D1E017
:107EE00062D089930C17E1F7F0E0CF16F0E7DF06D8
:107EF00018F0F601B7BEE89568D007B600FCFDCFD4
:107F0000A601A0E0B1E02C9130E011968C91119780
:107F100090E0982F8827822B932B1296FA010C0160
:107F200087BEE89511244E5F5F4FF1E0A038BF0790
:107F300051F7F601A7BEE89507B600FCFDCF97BE46
:107F4000E89526C08437B1F42ED02DD0F82E2BD052
:107F50003CD0F601EF2C8F010F5F1F4F84911BD097
:107F6000EA94F801C1F70894C11CD11CFA94CF0C13
:107F7000D11C0EC0853739F428D08EE10CD085E9AC
:107F80000AD08FE07ACF813511F488E018D01DD067
:107F900080E101D065CF982F8091C00085FFFCCF94
:107FA0009093C60008958091C00087FFFCCF809118
:107FB000C00084FD01C0A8958091C6000895E0E648
:107FC000F0E098E1908380830895EDDF803219F02E
:107FD00088E0F5DFFFCF84E1DECF1F93182FE3DFCA
:107FE0001150E9F7F2DF1F91089580E0E8DFEE27F6
:047FF000FF270994CA
:027FFE00040479
:00000001FF
