:020000040000FA
:100000000C9462000C948A000C948A000C948A0070
:100010000C948A000C948A000C948A000C948A0038
:100020000C948A000C948A000C948A000C946E073D
:100030000C948A000C948A000C948A000C948A0018
:100040000C9424070C948A000C94F2060C94CC06B1
:100050000C948A000C948A000C948A000C948A00F8
:100060000C948A000C948A000000000025002800EF
:100070002B0000000000240027002A0000000000E0
:1000800023002600290004040404040404040202DA
:100090000202020203030303030301020408102007
:1000A0004080010204081020010204081020000012
:1000B0000008000201000003040700000000000027
:1000C00000002A0811241FBECFEFD8E0DEBFCDBF4D
:1000D00011E0A0E0B1E0ECE9F6E102C005900D927C
:1000E000AA32B107D9F722E0AAE2B1E001C01D921D
:1000F000A731B207E1F710E0C2E6D0E004C02197D3
:10010000FE010E94460BC136D107C9F70E94B8080C
:100110000C944C0B0C9400008F929F92AF92BF9264
:10012000FF920F931F93CF93DF93F090F7012BE093
:100130002F1508F44CC02091F90108E512E0021BCC
:10014000110927FD1395000F111F000F111F20919A
:10015000F801C8E8D0E0C21BD10927FDD395CC0F28
:10016000DD1FCC0FDD1F4E010D2E000CAA08BB08B1
:100170009801012E000C440B550B281939094A0926
:100180005B09DC010E94010B24EB30E040E050E011
:100190000E94D70A820E931EA41EB51E8C169D06C1
:1001A0002CF0E801801691060CF4E4012297CC0FA4
:1001B000DD1F2FB7F8948F2D90E0FC01EE0FFF1F8D
:1001C000E80FF91FEE52FE4FD283C1832FBFDF919C
:1001D000CF911F910F91FF90BF90AF909F908F9004
:1001E00008958CBD9DBD0895AF92BF92CF92DF92CE
:1001F000EF92FF920F931F93CF93DF936C017B01DC
:100200008B01040F151FEB015E01AE18BF08C0176C
:10021000D10759F06991D601ED91FC910190F081DF
:10022000E02DC6010995892B79F7C501DF91CF91A2
:100230001F910F91FF90EF90DF90CF90BF90AF9004
:100240000895FC01538D448D252F30E0842F90E0DC
:10025000821B930B541710F0CF96089501970895C1
:10026000FC01918D828D981761F0A28DAE0FBF2F8A
:10027000B11D5D968C91928D9F5F9F73928F90E0E0
:1002800008958FEF9FEF0895FC01918D828D98174F
:1002900031F0828DE80FF11D858D90E008958FEF8C
:1002A0009FEF0895FC01918D228D892F90E0805C55
:1002B0009F4F821B91098F739927089585E391E0E1
:1002C0000E94520121E0892B09F420E0822F089539
:1002D00080E090E0892B29F00E945E0181110C944E
:1002E00000000895FC01A48DA80FB92FB11DA35AD9
:1002F000BF4F2C91848D90E001968F739927848F46
:10030000A689B7892C93A089B1898C918370806468
:100310008C93938D848D981306C00288F389E02D09
:1003200080818F7D80830895EF92FF920F931F93BA
:10033000CF93DF93EC0181E0888F9B8D8C8D981398
:100340001AC0E889F989808185FF15C09FB7F894A4
:10035000EE89FF896083E889F989808183708064F0
:1003600080839FBF81E090E0DF91CF911F910F913B
:10037000FF90EF900895F62E0B8D10E00F5F1F4F4A
:100380000F731127E02E8C8D8E110CC00FB607FC59
:10039000FACFE889F989808185FFF5CFCE010E94E7
:1003A0007201F1CFEB8DEC0FFD2FF11DE35AFF4FE2
:1003B000F0829FB7F8940B8FEA89FB898081806275
:1003C000CFCFCF93DF93EC01888D8823B9F0AA8932
:1003D000BB89E889F9898C9185FD03C0808186FD00
:1003E0000DC00FB607FCF7CF8C9185FFF2CF80814F
:1003F00085FFEDCFCE010E947201E9CFDF91CF9151
:100400000895833081F028F4813099F08230A9F08A
:1004100008958730A9F08830C9F08430B1F4809114
:1004200080008F7D03C0809180008F778093800053
:10043000089584B58F7784BD089584B58F7DFBCFF3
:100440008091B0008F778093B00008958091B000C4
:100450008F7DF9CF1F93CF93DF93282F30E0F901E1
:10046000E255FF4F8491F901E656FF4FD491F9010F
:10047000EA57FF4FC491CC23A9F0162F81110E9497
:100480000102EC2FF0E0EE0FFF1FE859FF4FA5919E
:10049000B4918FB7F894EC91111108C0D095DE2378
:1004A000DC938FBFDF91CF911F910895DE2BF8CFA2
:1004B000CF93DF9390E0FC01E656FF4F24918A57DB
:1004C0009F4FFC0184918823D1F090E0880F991F01
:1004D000FC01EE58FF4FA591B491FC01E859FF4F84
:1004E000C591D49161110EC09FB7F8948C91E22F01
:1004F000E0958E238C932881E223E8839FBFDF91D0
:10050000CF9108958FB7F894EC91E22BEC938FBFC5
:10051000F6CF3FB7F8948091300190913101A091CE
:100520003201B091330126B5A89B05C02F3F19F0C9
:100530000196A11DB11D3FBFBA2FA92F982F882763
:10054000BC01CD01620F711D811D911D42E0660F3E
:10055000771F881F991F4A95D1F708958F929F9210
:10056000AF92BF92CF92DF92EF92FF926B017C012C
:100570000E9489024B015C01C114D104E104F10421
:10058000B9F00E948902681979098A099B09683EB5
:1005900073408105910580F321E0C21AD108E1087A
:1005A000F10888EE880E83E0981EA11CB11CE4CFF0
:1005B000FF90EF90DF90CF90BF90AF909F908F9083
:1005C00008952FB7F89460912C0170912D018091BE
:1005D0002E0190912F012FBF0895BC016E5F7F4FB8
:1005E000DC01ED91FC910190F081E02D40E0099556
:1005F00091E0811190E0892F089508958EBD00004B
:100600000DB407FEFDCF8EB50895DF92EF92FF92F5
:100610000F931F93CF93DF937C01062FD42E152FBA
:1006200080E590E00E94F10060E0F70186850E947D
:100630002A0282E10E94FE02CD2DD12F0C0F1D2F28
:10064000111DC017D10721F089910E94FE02F9CF38
:1006500061E0F7018685DF91CF911F910F91FF90A7
:10066000EF90DF900C942A021F93CF93DF93EC015D
:10067000162F80E590E00E94F10060E08E850E94D8
:100680002A02812F80680E94FE0280E00E94FE0202
:10069000182F61E08E850E942A02812FDF91CF9171
:1006A0001F9108950F931F93CF93DF93EC01062FB3
:1006B000142F80E590E00E94F10060E08E850E949A
:1006C0002A02802F0E94FE02812F0E94FE0261E01A
:1006D0008E85DF91CF911F910F910C942A02CF92BA
:1006E000DF92EF92FF920F931F93CF93DF93EC0172
:1006F0006B01F42E890140E062E00E94520344E065
:100700006AE0CE010E94520340E864E1CE010E94FB
:100710005203A6016F2DCE010E94050343E062E063
:10072000CE010E9452030E94E1026B017C0129E587
:10073000C20ED11CE11CF11C6AE0CE010E94340300
:1007400082FF1BC040E062E0CE010E94520364E4DD
:10075000CE010E943403F801808362E4CE010E943E
:100760003403F801818380E0DF91CF911F910F91D5
:10077000FF90EF90DF90CF9008950E94E1026C15FA
:100780007D058E059F05C0F283E0EECF2F923F924C
:100790004F925F926F927F928F929F92AF92CF9281
:1007A000DF92EF92FF920F931F93CF93DF9300D0CE
:1007B000CDB7DEB74C012B01D42E390180E0E11416
:1007C000F10411F0F70180813C2C329490EF392232
:1007D000380E40E062E0C4010E9452034FE768E037
:1007E000C4010E94520340E864E1C4010E94520324
:1007F000A2016D2DC4010E940503432D6AE1C401CD
:100800000E9452034CE062E0C4010E9452036AE17C
:10081000C4010E943403482F40686AE1C4010E9469
:1008200052030E94E1021B012C01F4E22F0E311C45
:10083000411C511C68E0C4010E943403982F90733E
:1008400009F0B7C080FF15C083E00F900F90DF91D3
:10085000CF911F910F91FF90EF90DF90CF90AF90CD
:100860009F908F907F906F905F904F903F902F90D0
:1008700008950E94E1026215730584059505D0F282
:10088000E3CF6114710409F469C00115110509F47D
:1008900065C064E1C4010E943403382EF8018081F0
:1008A000831508F480C030823320E1F180E590E0C8
:1008B0000E94F10060E0F40186850E942A023A94C9
:1008C00082E90E94FE02CC20B1F08FEF90E09C0103
:1008D00002C0220F331FCA94E2F7690182E90E9425
:1008E000FE029C2D9095F301208192238C21982B60
:1008F0009083CC24C39423014C0C511CC31440F4AA
:1009000082E90E94FE02F20181932F01C394F6CF87
:1009100080E00E94FE02F201808361E0F40186859E
:100920000E942A0268E1C4010E9434038770E11426
:10093000F10411F0F701808323FC37C061147104C6
:10094000B1F10115110599F1AA2089F1F801408151
:10095000413031F4843029F58FEF77CF80E0ECCF50
:100960004230F8F081111DC042509E012F5F3F4F71
:10097000B301C4010E946F03811167CFF801908118
:10098000690E711CF301329720819981291309C0E6
:10099000F1E06F1A7108F30120819A81291709F497
:1009A00054CF87E052CF84E050CF82E04ECF80E03A
:1009B0004CCF6CE0C4010E943403282E837109F4EB
:1009C00060CF81E042CF8F929F92AF92CF92EF9211
:1009D000FF920F931F93CF93DF9300D000D01F920D
:1009E000CDB7DEB74C0182E08D8340E064E2C40104
:1009F0000E94520340E066E2C4010E94520346E2B4
:100A000068E4C4010E94520386E28B838D818230A8
:100A1000D8F16CE1C4010E943403482F4F776CE198
:100A2000C4010E94520387E08C83A12CC12CCE010B
:100A300004967C018E010B5F1F4F9E012F5F3F4F7D
:100A400041E0BE016D5F7F4FC4010E94C603982F35
:100A5000811117C08D818230B9F48C81811114C04D
:100A600081E00F900F900F900F900F90DF91CF913A
:100A70001F910F91FF90EF90CF90AF909F908F902C
:100A8000089581E0923069F380E0EBCF2F923F929E
:100A90004F925F926F927F928F929F92AF92BF928E
:100AA000CF92DF92EF92FF920F931F93CF93DF933A
:100AB000CDB7DEB72D970FB6F894DEBF0FBECDBF12
:100AC00016E0413508F04AC1342E3B014C016CE17F
:100AD0000E943403482F4F776CE1C4010E945203F7
:100AE00083E98983332029F081E0F30190819530F7
:100AF00008F480E022242394B12C9B2D990F990FA8
:100B0000990FD32CD91AD7FCD12C32E0882319F0B5
:100B100098E89B8333E021E09D2D977009F420E055
:100B20009D2D959595959595290FC9F094E0811186
:100B300093E0291708F4922FEB2DF0E03196E60DA3
:100B4000F71D232F4191A1E0B0E0AC0FBD1FA20F14
:100B5000B11D4C932F5F422F431B491798F38823F5
:100B600011F0F8E0DF0E8FE18D150CF082C090E7F8
:100B70009A838B819C8189279D8189279E818927E2
:100B80008F839E01285F3F4F47E0BE016F5F7F4F1D
:100B9000C4010E946F03182F8111E0C01A86E3E0A0
:100BA000EB87DC86CE0107962C0199E09D87CA84ED
:100BB0004C2D4295407F4C0D6AE1C4010E945203C6
:100BC000A12CCE010A967C018E01055F1F4F920178
:100BD0004D85BE016F5F7F4FC4010E94C603182F71
:100BE000823009F065C06CE1C4010E94340385FDC8
:100BF000B5C08F7109F480E2282F30E04D2DDD0C57
:100C0000550B421753070CF09DC0D82EE82FE595E1
:100C1000E595E595EF5F982F977081E009F480E006
:100C2000E80F81E090E08C0F9D1F8E0F911DFC015D
:100C3000215031092770332781E090E002C0880FEE
:100C4000991F2A95E2F79C018081822B80838BCFAC
:100C500085E98983332031F081E0F3019081983078
:100C600008F04BCF80E049CF87E9898326E0B22E98
:100C7000F9CF9D2D97709A878D2D859585958595B2
:100C80008E5F282F2295207F290F2A8321E0911142
:100C900001C020E0280F2D8744244394512C4C0E92
:100CA0005D1E480E511CE9E0E81BEB87DC867FCF18
:100CB000811154C080E2D82E9C8590320CF457CF1D
:100CC0008B81883809F040C083E093E0EB2DF0E0A1
:100CD0003196E60DF71D980FA1E0B0E0AC0FBD1FF7
:100CE000A80FB11D2C9121938F5F8913F5CFBB8481
:100CF000E3E0BE124DC08A8581114AC09E012D5F7E
:100D00003F4F41E0B201C4010E946F03182F8111CF
:100D100025C09B81F201818198133CC09C81828116
:100D2000981338C0808182FF12C02394F2E02F16FE
:100D300009F48ECF83E0281609F496CF91E02916A6
:100D400009F4CECE15E00AC082E094E0BFCFF301F3
:100D50008387822D880F820D8F5F8083812F2D9650
:100D60000FB6F894DEBF0FBECDBFDF91CF911F91BC
:100D70000F91FF90EF90DF90CF90BF90AF909F903A
:100D80008F907F906F905F904F903F902F9008953D
:100D900011E0E4CF17E0E2CF1F920F920FB60F924F
:100DA00011242F933F934F935F936F937F938F9370
:100DB0009F93AF93BF93EF93FF9385E391E00E94DE
:100DC0007201FF91EF91BF91AF919F918F917F91B0
:100DD0006F915F914F913F912F910F900FBE0F90A8
:100DE0001F9018951F920F920FB60F9211242F93F8
:100DF0008F939F93EF93FF93E0914501F09146010C
:100E00008081E0914B01F0914C0182FD1BC09081EB
:100E100080914E018F5F8F7320914F01821741F0B7
:100E2000E0914E01F0E0EB5CFE4F958F80934E0118
:100E3000FF91EF919F918F912F910F900FBE0F9087
:100E40001F9018958081F4CF1F920F920FB60F92CA
:100E500011242F933F938F939F93AF93BF938091D0
:100E60002C0190912D01A0912E01B0912F01309174
:100E70002B0123E0230F2D3758F50196A11DB11D3D
:100E800020932B0180932C0190932D01A0932E0190
:100E9000B0932F018091300190913101A0913201E6
:100EA000B09133010196A11DB11D80933001909343
:100EB0003101A0933201B0933301BF91AF919F9163
:100EC0008F913F912F910F900FBE0F901F9018950B
:100ED00026E8230F0296A11DB11DD2CF1F920F92BB
:100EE0000FB60F9211242F933F934F935F936F93FD
:100EF0007F938F939F93AF93BF93CF93DF93EF93A2
:100F0000FF9380912A01C091F601D0E087FF24C0B1
:100F1000109285001092840080912A018F5F809347
:100F20002A0180912A01082E000C990B8C179D072D
:100F300024F480912A018C30C4F180918400909136
:100F40008500049680349C4908F47AC0809184001E
:100F500090918500049676C080912A01082E000C9D
:100F6000990B8C179D07C4F6E0912A018E2FEE0F86
:100F7000990BFC01EE0FFF1FE80FF91FEE52FE4F19
:100F8000808186FFC9CFE0912A018E2FEE0F990B49
:100F9000FC01EE0FFF1FE80FF91FEE52FE4F80819C
:100FA00060E08F730E942A02B7CF209184003091B5
:100FB0008500E0912A018E2FEE0F990BFC01EE0FB8
:100FC000FF1FE80FF91FEE52FE4F81819281820FC1
:100FD000931F9093890080938800E0912A018E2FBF
:100FE000EE0F990BFC01EE0FFF1FE80FF91FEE52F9
:100FF000FE4F808186FF11C0E0912A018E2FEE0FF7
:10100000990BFC01EE0FFF1FE80FF91FEE52FE4F88
:10101000808161E08F730E942A02FF91EF91DF913E
:10102000CF91BF91AF919F918F917F916F915F9180
:101030004F913F912F910F900FBE0F901F901895D9
:1010400080E49CE990938900809388008FEF8093DF
:101050002A01E3CF109238011092370188EE93E015
:10106000A0E0B0E08093390190933A01A0933B0156
:10107000B0933C0188E091E0909336018093350174
:1010800085EC90E0909342018093410184EC90E0E4
:10109000909344018093430180EC90E0909346014B
:1010A0008093450181EC90E0909348018093470143
:1010B00082EC90E090934A018093490186EC90E0A5
:1010C00090934C0180934B0110924E0110924F016E
:1010D00010925001109251018AE191E09093080220
:1010E000809307028AE08093150289E080931602BC
:1010F00083E090E09093FB018093FA011092FD0150
:101100001092FC01109201021092000284E690E01D
:101110009093FF018093FE010E94E102609302021E
:1011200070930302809304029093050261E083E0D0
:101130000E94580281E0809306028091F6018C3073
:1011400098F491E0980F9093F6018093F70190E066
:10115000FC01EE0FFF1FE80FF91FEE52FE4F88EB68
:101160009BE09283818308958FEF8093F701089528
:10117000789484B5826084BD84B5816084BD85B572
:10118000826085BD85B5816085BD80916E0081607E
:1011900080936E0010928100809181008260809324
:1011A0008100809181008160809381008091800026
:1011B0008160809380008091B10084608093B10051
:1011C0008091B00081608093B00080917A0084604B
:1011D00080937A0080917A00826080937A00809177
:1011E0007A00816080937A0080917A008068809391
:1011F0007A001092C100E0914501F091460182E031
:101200008083E0914101F09142011082E09143011D
:10121000F091440180E1808310924D01E0914901F9
:10122000F0914A0186E08083E0914701F091480106
:10123000808180618083E0914701F0914801808145
:1012400088608083E0914701F09148018081806847
:101250008083E0914701F091480180818F7D8083F8
:10126000CFB7F89480913401811127C0E0E9F0E014
:101270008491E4EAF0E09491E82FF0E0EE0FFF1F94
:10128000EE58FF4FA591B491EC91E92321F461E070
:101290008AE00E942A0261E08AE00E9458028CB52E
:1012A00080618CBD8CB580648CBD61E08DE00E9456
:1012B000580261E08BE00E945802809134018F5FF8
:1012C00080933401CFBF61E0809115020E945802E3
:1012D00061E0809115020E942A02809116028F3FE0
:1012E00009F4EFC060E00E9458022091160230E03D
:1012F000F901E255FF4F8491F901E656FF4FD49171
:10130000F901EA57FF4FC491C111CCC061E080914F
:1013100016020E94580260E0809116020E942A0282
:1013200083E090E00197F1F761E0809116020E945E
:101330002A0262E370E080E090E00E94AE0240E0AA
:1013400064E287E092E00E94520340E066E287E0B8
:1013500092E00E94520346E268E487E092E00E9435
:10136000520340E864E587E092E00E94520349EAB4
:1013700066E587E092E00E94520343E068E587E07B
:1013800092E00E94520348EE6AE587E092E00E94F4
:10139000520340E46AE287E092E00E9452034DE388
:1013A00062E287E092E00E94520368E287E092E006
:1013B0000E943403982F9370933039F0482F436084
:1013C00068E287E092E00E9452038091F7018C303E
:1013D00008F051C061E085E00E9458028091F70159
:1013E000282F30E0F901EE0FFF1FE20FF31FEE523E
:1013F000FE4F9081907C956090831092F80110923E
:10140000F9012CE0622F0E943A0B829FB001112457
:1014100030E020E0AB01420F531FFA01EE0FFF1F37
:10142000E40FF51FEE52FE4F908196FD16C02F5F20
:101430003F4F2C30310571F781110FC010928000A1
:1014400082E0809381001092850010928400B19A0E
:1014500080916F00826080936F00E091F7018E2F82
:1014600090E0FC01EE0FFF1FE80FF91FEE52FE4F58
:10147000808180648083C0E0D0E087E092E00E94B9
:10148000E304811135C064EF71E080E090E00E94D8
:10149000AE02209791F30E945E01882371F30E94AF
:1014A0000000EBCF81110E940102EC2FF0E0EE0F63
:1014B000FF1FE458FF4FA591B491EC91ED2309F47F
:1014C00025CF4FE062E087E092E00E945203C3E044
:1014D00062E370E080E090E00E94AE0262E087E0AC
:1014E00092E00E94340384FF2ACFC15089F727CFAE
:1014F00087E092E00E94ED02882309F4C4CF909126
:101500000A0280910001981312C090910B02809101
:10151000010198130CC090910C0280910201981364
:1015200006C09091030180910D02981789F061E047
:101530008091FA010E942A0260ED77E080E090E05D
:101540000E94AE0260E08091FA010E942A02A1CFBF
:1015500045E050E060E271E085E391E00E94F40034
:1015600042E050E066E271E085E391E00E94F40021
:1015700061E08091FA010E942A0264E670E080E056
:1015800090E00E94AE0260E08091FA010E942A027F
:1015900084EB90E00E948C0068E873E180E090E0CA
:1015A0000E94AE0290E080E00E948C0072CF052E77
:1015B00097FB1EF400940E94EE0A57FD07D00E948C
:1015C000090B07FC03D04EF40C94EE0A509540959D
:1015D000309521953F4F4F4F5F4F089590958095DF
:1015E000709561957F4F8F4F9F4F08950E942B0BF1
:1015F000A59F900DB49F900DA49F800D911D112467
:101600000895B7FF0C94F60A0E94F60A821B930B0A
:101610000895A1E21A2EAA1BBB1BFD010DC0AA1F33
:10162000BB1FEE1FFF1FA217B307E407F50720F04B
:10163000A21BB30BE40BF50B661F771F881F991FC6
:101640001A9469F760957095809590959B01AC010F
:10165000BD01CF010895A29FB001B39FC001A39F18
:10166000700D811D1124911DB29F700D811D1124DB
:10167000911D0895991B79E004C0991F961708F0F1
:10168000961B881F7A95C9F780950895EE0FFF1F66
:101690000590F491E02D0994F894FFCF31B5B91A73
:1016A000000000009401F4002101E1015201300129
:1016B0004401000000004605E304ED024571756138
:0616C0006C000D0A0000A1
:107E0000112484B714BE81FFF0D085E080938100F7
:107E100082E08093C00088E18093C10086E0809377
:107E2000C20080E18093C4008EE0C9D0259A86E02C
:107E300020E33CEF91E0309385002093840096BBD3
:107E4000B09BFECF1D9AA8958150A9F7CC24DD24C4
:107E500088248394B5E0AB2EA1E19A2EF3E0BF2EE7
:107E6000A2D0813461F49FD0082FAFD0023811F036
:107E7000013811F484E001C083E08DD089C08234E0
:107E800011F484E103C0853419F485E0A6D080C0E4
:107E9000853579F488D0E82EFF2485D0082F10E0AE
:107EA000102F00270E291F29000F111F8ED06801E7
:107EB0006FC0863521F484E090D080E0DECF843638
:107EC00009F040C070D06FD0082F6DD080E0C81688
:107ED00080E7D80618F4F601B7BEE895C0E0D1E017
:107EE00062D089930C17E1F7F0E0CF16F0E7DF06D8
:107EF00018F0F601B7BEE89568D007B600FCFDCFD4
:107F0000A601A0E0B1E02C9130E011968C91119780
:107F100090E0982F8827822B932B1296FA010C0160
:107F200087BEE89511244E5F5F4FF1E0A038BF0790
:107F300051F7F601A7BEE89507B600FCFDCF97BE46
:107F4000E89526C08437B1F42ED02DD0F82E2BD052
:107F50003CD0F601EF2C8F010F5F1F4F84911BD097
:107F6000EA94F801C1F70894C11CD11CFA94CF0C13
:107F7000D11C0EC0853739F428D08EE10CD085E9AC
:107F80000AD08FE07ACF813511F488E018D01DD067
:107F900080E101D065CF982F8091C00085FFFCCF94
:107FA0009093C60008958091C00087FFFCCF809118
:107FB000C00084FD01C0A8958091C6000895E0E648
:107FC000F0E098E1908380830895EDDF803219F02E
:107FD00088E0F5DFFFCF84E1DECF1F93182FE3DFCA
:107FE0001150E9F7F2DF1F91089580E0E8DFEE27F6
:047FF000FF270994CA
:027FFE00040479
:00000001FF
